:020000040800F2
:10000000B84E0020990200082D7800088971000878
:1000100029780008990600084184000800000000C3
:10002000000000000000000000000000A1780008AF
:1000300061220008000000009D780008F97800089F
:10004000B3020008B3020008B3020008B3020008BC
:10005000B3020008B3020008B3020008B3020008AC
:10006000B3020008B3020008B302000859200008D8
:1000700069200008B302000879200008B3020008D4
:10008000B3020008B3020008B3020008B30200087C
:100090009D060008B3020008B3020008B30200087E
:1000A000B3020008B3020008B3020008B30200085C
:1000B0001579000825790008B3020008B30200088A
:1000C000B3020008B3020008B3020008B30200083C
:1000D000B302000805840008B30200081584000874
:1000E000B3020008B3020008B3020008B30200081C
:1000F00055790008B3020008B302000889200008FF
:10010000B3020008B302000835790008B302000802
:10011000B3020008197C0008B30200084579000802
:10012000B302000899200008A9200008B3020008C3
:10013000B30200080000000000000000B302000845
:10014000B3020008AD060008B3020008B3020008BD
:10015000B3020008B3020008B92000083184000887
:10016000B3020008B3020008B3020008B30200089B
:10017000B3020008B3020008000000000000000005
:10018000B3020008B302000800F002F800F074F8AF
:1001900014A696E8000CB244B344DA4501D100F04D
:1001A0006BF8BAE80F000FA696E83000A5EB04053F
:1001B00004EB0607AAEB0704A7F101074FEA1515A0
:1001C0004FEA3414A4F10104AC4201D300F054F816
:1001D00013F0010F18BFFB1A43F0010300F001F800
:1001E000DBE71847BCDE0000DCDE00000A444FF00D
:1001F000000C10F8013B13F0070408BF10F8014B86
:100200001D1108BF10F8015B641E05D010F8016BCA
:10021000641E01F8016BF9D113F0080F1EBF10F82E
:10022000014BAD1C0C1B09D16D1E58BF01F801CB51
:10023000FAD505E014F8016B01F8016B6D1EF9D5D4
:100240009142D6D37047000070470000002300247D
:1002500000250026103A28BF78C1FBD8520728BFD6
:1002600030C148BF0B6070471FB50DF060FD00F056
:100270006BF91FBD10B510BD00F090F91146FFF7E6
:10028000F3FF0CF023FE00F0AEF903B4FFF7F2FF2A
:1002900003BC00F0B1F90000094880470948004755
:1002A000FEE7FEE7FEE7FEE7FEE7FEE7FEE7FEE726
:1002B000FEE7FEE704480549054A064B7047000083
:1002C0000179000889010008B81E0020B84E0020FE
:1002D000B82E0020B82E002053EA020C00F06980EE
:1002E0002DE9F04B4FF00006002B1FBFB3FA83F54A
:1002F00003FA05F424FA05F65E4012BF1643B2FA7B
:1003000082F502FA05F4C5F120051EBF22FA05FCAC
:1003100044EA0C04203556EA044C4FEA144418BF52
:10032000641C4FF000084FF00009904271EB030C81
:1003300039D3002919BFB1FA81F701FA07F6B0FAEB
:1003400080F700FA07F6C7F120071EBF20FA07FC66
:1003500046EA0C062037B6FBF4FCA7EB0507103F76
:1003600007F01F0BCBF120062CFA06F60CFA0BFB5C
:1003700044BFB3460026202FA4BF5E464FF0000BBB
:100380005BEA060C08BF4FF0010B19EB0B0948EBB9
:100390000608ABFB027C06FB02CC0BFB03CCC01BAC
:1003A00071EB0C01C1E70B46024641464846BDE8E9
:1003B000F08B13B5084318BF4FF0FF300146AFF381
:1003C0000080BDE81C40704710B5431C02E010F8E7
:1003D000011B71B18107FAD14FF0013202C88C1AAA
:1003E0008C4314EAC211F9D0C01A0A0603D0C01E09
:1003F00010BDC01A10BD0A0401D0801E10BD090234
:10040000FCD0401E10BD032A40F2308010F0030CD7
:1004100000F0158011F8013BBCF1020F624498BF57
:1004200011F801CB00F8013B38BF11F8013BA2F1F4
:10043000040298BF00F801CB38BF00F8013B11F06F
:10044000030300F02580083AC0F0088051F8043B0F
:10045000083A51F804CBA0E80810F5E7121D5CBF7C
:1004600051F8043B40F8043BAFF30080D20724BFAF
:1004700011F8013B11F801CB48BF11F8012B24BF43
:1004800000F8013B00F801CB48BF00F8012B704792
:1004900010B5203AC0F00B80B1E81850A0E8185011
:1004A000B1E81850A0E81850203ABFF4F5AF5FEA61
:1004B000027C24BFB1E81850A0E8185044BF18C906
:1004C00018C0BDE810405FEA827C24BF51F8043BAD
:1004D00040F8043B08BF7047D20728BF31F8023B01
:1004E00048BF11F8012B28BF20F8023B48BF00F895
:1004F000012B70474FF0000200B513469446964614
:10050000203922BFA0E80C50A0E80C50B1F1200126
:10051000BFF4F7AF090728BFA0E80C5048BF0CC0D4
:100520005DF804EB890028BF40F8042B08BF704732
:1005300048BF20F8022B11F0804F18BF00F8012BA4
:10054000704770477047704708487CB57844009002
:1005500007487844009C0546019004E02046016865
:1005600008448047241DAC42F8D17CBD70DB0000FC
:100570007EDB000000487047D801002010B5FFF76F
:10058000F9FF006810BD10B50446FFF7F3FF0460E3
:1005900010BD000000487047D80100207546FFF7E5
:1005A000F9FFAE4605006946534620F00700854630
:1005B00018B020B5FFF77EFEBDE820404FF00006E2
:1005C0004FF000074FF000084FF0000BAC46ACE8CE
:1005D000C009ACE8C009ACE8C009ACE8C00921F02A
:1005E00007018D46704710B50446AFF300802046E2
:1005F000BDE81040FFF749BE01491820ABBEFEE739
:10060000260002007047000080B584B0039002917C
:100610000020ADF80600039820B1FFE702980228F9
:1006200001D8FFE715E003980299023901F01EFE98
:10063000ADF80600BDF80600039A0299114401F8CE
:10064000020C9DF80700039A0299114401F8010C6D
:10065000FFE704B080BD000080B584B00390029134
:1006600000208DF80700039820B1FFE702980228C8
:1006700001D8FFE70EE003980299013901F02CFE42
:100680008DF807009DF80700039A0299114401F8BC
:10069000010CFFE704B080BDFFE7FEE780B541F63F
:1006A0007C00C2F2000002F029F980BD80B541F65D
:1006B000A400C2F2000002F021F980BD70B58AB03A
:1006C0009C4696460C4605461298119810990F9A2A
:1006D0000E9B09958DF823408DF822E08DF821C0FE
:1006E000ADF81E30ADF81C20ADF81A10ADF81800AA
:1006F0001298FFF769FEADF8160040F25450C2F2AE
:1007000000000390A52101703321418040F20131A6
:10071000C1804FF48871A0F8921090F84210A0F8B0
:10072000941090F8421001F58071A0F89610099984
:1007300080F81C120999090A80F81D12BDF82610CC
:1007400080F81E129DF8232090F81F1202F0070275
:1007500001F0F801114480F81F1290F81F1241F0C7
:10076000380180F81F129DF8222090F8201202F024
:100770000F0201F0F001114480F820129DF82120B1
:1007800090F8201201F00F0141EA021180F82012C6
:10079000BDF81E3090F82322B0F821126FF35F23CA
:1007A00001F47E41194480F82322A0F82112BDF8FB
:1007B000162090F82332B0F8211241EA03416FF37A
:1007C0005F2240F2FF13C0F2FC03194041EA4221CC
:1007D000A0F82112090C80F82312BDF81C20D0F8D3
:1007E000241262F30901C0F82412BDF81A20D0F8CF
:1007F00024126FF3DF226FF3942141EA8221C0F8C3
:100800002412BDF81820D0F824126FF35F5141EA8A
:100810004251C0F8241200210191A0F84812C0F8FA
:100820004412C0F84012C0F83C12C0F83812C0F8A8
:100830003412C0F83012C0F82C1200F50B70029080
:100840001299BDF81620FFF7DEFD039B197840F6DC
:100850007C40C2F20000049001705988A0F8011099
:1008600019794A1C1A71C1700521FFF7F5FE019A2A
:100870000299039B0498B3F806C0A0F805C0B3F82A
:1008800092C0A0F807C0B3F894C0A0F809C0B3F8AC
:1008900096C0A0F80BC093F81CC280F80DC093F866
:1008A0001DC280F80EC093F81EC280F80FC093F8E6
:1008B0001F5293F820E293F8234205F0070CC5F38A
:1008C000C2054CEAC50C4CEA8E1CB3F821E24EEA94
:1008D0000444A6466FF35F2E4CEA8E3C40F2000EB5
:1008E000CFF6807E0EEA843EF444C0F810C0D3F800
:1008F0002432436182611C301E22FFF784FD03997C
:10090000049849880931FFF77FFE049941F6BC50ED
:10091000C2F200003C224FF6FF7306F099FB0AB0CA
:1009200070BD0000B0B588B0DDF850C0DDF84CC037
:10093000DDF848C0DDF844C0DDF840C0DDF83CC05B
:10094000DDF838C0DDF834C0DDF830C007908DF830
:100950001B1005928DF8133040F25453C2F200037D
:100960000293A521197040F67C40C2F2000003906A
:10097000017051215980A0F8011019794A1C1A718F
:10098000C1700521FFF768FE029A039940F2013019
:10099000D080A1F8050040F20310A2F89200A1F85F
:1009A000070092F84200A2F89400A1F8090092F81A
:1009B000420000F58070A2F89600A1F80B0000201C
:1009C0008DF81200FFE79DF81200042800F327813C
:1009D000FFE707999DF8120011F82010020140F27C
:1009E0005450C2F2000000F5AE70019081549DF8A1
:1009F0001220C2EB021340F67C42C2F20002134402
:100A0000597307999DF8123001EB8301497800EB87
:100A1000031359709DF81230C3EB031313449973F9
:100A200007999DF8123001EB8301897800EB0313DD
:100A300099709DF81230C3EB03131344D9739DF8DA
:100A40001BC09DF8121000EB0113D9780CF0070CB5
:100A500001F0F8016144D970059B9DF8121013F85C
:100A600001C000EB0113D9780CF0070C01F0C701AD
:100A700041EACC01D9709DF813C09DF8121000EB2B
:100A8000011319790CF00F0C01F0F0016144197198
:100A90000C9B9DF8121013F801C000EB011319799B
:100AA00001F00F0141EA0C1119710D9B9DF8121014
:100AB00033F811E000EB011333F8051F93F802C07F
:100AC0006FF35F2E01F47E41714483F802C01980F8
:100AD0000E9B9DF8121033F811C000EB011333F890
:100AE000051F93F802E041EA0E416FF35F2C40F2DC
:100AF000FF1EC0F2FC0E01EA0E0141EA4C211980F2
:100B0000090C99700F9B9DF8121033F811C000EB7F
:100B1000011399686CF309019960109B9DF81210FC
:100B200033F811C000EB011399686FF3DF2C6FF3FA
:100B3000942141EA8C219960119B9DF8121033F8A1
:100B400011C000EB011399686FF35F5141EA4C51FA
:100B50009960129B9DF8121033F811C000EB01133D
:100B6000D9686CF30901D960139B9DF8121033F812
:100B700011C000EB0113D9686FF3DF2C6FF39421E0
:100B800041EA8C21D960149B9DF8121033F811C0F2
:100B900000EB0113D9686FF35F5141EA4C51D96002
:100BA0009DF8123000EB031C9CF803509CF80440A5
:100BB0009CF807E005F00701C5F3C20541EAC5014D
:100BC00041EA8411BCF805C04CEA0E4EF4466FF3BE
:100BD0005F2C41EA8C3140F2000CCFF6807C0CEAAD
:100BE0008E3C6144C3EB0313134419619DF812302A
:100BF00000EB03118968C3EB0313134459619DF89B
:100C0000121000EB0110C068C1EB011111448861A2
:100C1000FFE79DF8120001308DF81200D3E640F294
:100C20005450C2F20000408800F1090140F67C40B7
:100C3000C2F200000090FFF7E7FC009941F6BC50BB
:100C4000C2F200005A224FF6FF7306F001FA08B014
:100C5000B0BD00002DE9F0418AB01C4615460E4695
:100C6000074615981499139A129BDDF844C0DDF8D5
:100C700040E009978DF823608DF822508DF82140CF
:100C80008DF820E0ADF81EC0ADF81C30ADF81A208C
:100C9000ADF81810ADF816008DED040A40F254536B
:100CA000C2F200030293A52018701520588040F26C
:100CB0000130D88040F20110A3F8920093F842006E
:100CC000A3F8940093F8420000F58070A3F8960012
:100CD000099883F82C010998000A83F82D01BDF8C2
:100CE000260083F82E019DF8231093F82F0101F0C0
:100CF000070100F0F800084483F82F019DF8221046
:100D000093F82F0101F0070100F0C70040EAC1008D
:100D100083F82F019DF8211093F8300101F00F01A5
:100D200000F0F000084483F830019DF8201093F89B
:100D3000300100F00F0040EA011083F83001BDF8E7
:100D40001E2093F83311B3F831016FF35F2200F4E2
:100D50007E40104483F83311A3F83101BDF81C1014
:100D600093F83321B3F8310140EA02406FF35F2179
:100D700040F2FF12C0F2FC02104040EA4120A3F80A
:100D80003101000C83F83301BDF81A10D3F8340197
:100D900061F30900C3F83401BDF81810D3F8340129
:100DA0006FF3DF216FF3942040EA8120C3F8340110
:100DB000BDF81610D3F834016FF35F5040EA41508C
:100DC000C3F83401197840F67C40C2F20000039069
:100DD00001705988A0F8011019794A1C1A71C17064
:100DE0000521FFF739FC02980399C288A1F8052074
:100DF000B0F89220A1F80720B0F89420A1F80920BB
:100E0000B0F89620A1F80B2090F82C214A7390F8A6
:100E10002D218A7390F82E21CA7390F82FE190F853
:100E2000303190F833C10EF00702CEF3C20E42EA21
:100E3000CE0242EA8312B0F8313143EA0C4C6346E9
:100E40006FF35F2342EA83320023CFF6807303EA15
:100E50008C331A440A61D0F8340148619DF82200AD
:100E600006280CD1FFE79DED040ABDEEC00A10EE86
:100E7000100A40F67C41C2F2000188610FE09DED4E
:100E8000040A9FED141A20EE010ABDEEC00A10EE0E
:100E9000100A40F67C41C2F200018861FFE740F28F
:100EA0005450C2F20000408800F1090140F67C4035
:100EB000C2F200000190FFF7A7FB019941F6BC5078
:100EC000C2F200001E224FF6FF7306F0C1F80AB00E
:100ED000BDE8F08100007A44B0B588B0DDF850C0BC
:100EE000DDF84CC0DDF848C0DDF844C0DDF840C096
:100EF000DDF83CC0DDF838C0DDF834C0DDF830C0C6
:100F000007908DF81B1005928DF8133040F2545362
:100F1000C2F200030293A521197040F67C40C2F290
:100F20000000039001706F215980A0F80110197919
:100F30004A1C1A71C1700521FFF78EFB029A0399B2
:100F400040F20130D080A1F805004FF48270A2F881
:100F50009200A1F8070092F84200A2F89400A1F8CC
:100F6000090092F8420000F58070A2F89600A1F8FE
:100F70000B0000208DF81200FFE79DF812000628F4
:100F800000F32781FFE707999DF8120011F8201060
:100F9000020140F25450C2F2000000F5D6700190F8
:100FA00081549DF81220C2EB021340F67C42C2F23B
:100FB00000021344597307999DF8123001EB830125
:100FC000497800EB031359709DF81230C3EB0313FB
:100FD0001344997307999DF8123001EB83018978C6
:100FE00000EB031399709DF81230C3EB0313134405
:100FF000D9739DF81BC09DF8121000EB0113D9782E
:101000000CF0070C01F0F8016144D970059B9DF8C4
:10101000121013F801C000EB0113D9780CF0070C83
:1010200001F0C70141EACC01D9709DF813C09DF8C9
:10103000121000EB011319790CF00F0C01F0F00104
:10104000614419710C9B9DF8121013F801C000EB5C
:101050000113197901F00F0141EA0C1119710D9B6F
:101060009DF8121033F811E000EB011333F8051F5F
:1010700093F802C06FF35F2E01F47E41714483F850
:1010800002C019800E9B9DF8121033F811C000EBBE
:10109000011333F8051F93F802E041EA0E416FF3A4
:1010A0005F2C40F2FF1EC0F2FC0E01EA0E0141EA85
:1010B0004C211980090C99700F9B9DF8121033F880
:1010C00011C000EB011399686CF309019960109B42
:1010D0009DF8121033F811C000EB011399686FF3FB
:1010E000DF2C6FF3942141EA8C219960119B9DF8CC
:1010F000121033F811C000EB011399686FF35F51C0
:1011000041EA4C519960129B9DF8121033F811C0BE
:1011100000EB0113D9686CF30901D960139B9DF8AA
:10112000121033F811C000EB0113D9686FF3DF2CF4
:101130006FF3942141EA8C21D960149B9DF8121021
:1011400033F811C000EB0113D9686FF35F5141EA26
:101150004C51D9609DF8123000EB031C9CF80350F1
:101160009CF804409CF807E005F00701C5F3C205B0
:1011700041EAC50141EA8411BCF805C04CEA0E4EB3
:10118000F4466FF35F2C41EA8C3140F2000CCFF64D
:10119000807C0CEA8E3C6144C3EB03131344196159
:1011A0009DF8123000EB03118968C3EB031313445D
:1011B00059619DF8121000EB0110C068C1EB0111DC
:1011C00011448861FFE79DF8120001308DF812008C
:1011D000D3E640F25450C2F20000408800F1090109
:1011E00040F67C40C2F200000090FFF70DFA009933
:1011F00041F6BC50C2F2000078224FF6FF7305F0B2
:1012000027FF08B0B0BD000080B584B00020ADF865
:101210000E0040F67A41C2F200014FF400700880DF
:1012200040F67800C2F20000007838B1FFE740F6DF
:101230007801C2F200010020087006E040F6780153
:10124000C2F2000101200870FFE700F0B1F8ADF82C
:101250000E0040F67800C2F200000090017840F6DF
:101260007900C2F20000019000EB4120BDF80E10A1
:10127000014440F67A40C2F2000002900088BDF8B6
:101280000E20801A82B241F6BC50C2F2000005F076
:101290009FFE009B0199029A187801EB40201B7871
:1012A000B3FA83F35B0901EB43211388BDF80E20E9
:1012B0009B1A1944FFF7A7F804B080BD80B584B02D
:1012C00003900020029041F6BC50C2F2000000687A
:1012D0000068C0F3001002900298002852D0FFE787
:1012E000FFE70020009041F6BC50C2F20000016808
:1012F000096800910068406800900098FFE741F697
:10130000BC50C2F200000168096801910168496897
:10131000019105F0D7F803980068406801900198A2
:10132000C0F5007040F67A41C2F20001088040F634
:101330007800C2F20000007838B1FFE740F678018B
:10134000C2F200010020087006E040F67801C2F207
:10135000000101200870FFE740F67800C2F20000AB
:10136000017840F67900C2F2000000EB412141F61D
:10137000BC50C2F200004FF4007205F029FE00F0EC
:1013800017F8FFE704B080BD80B541F6BC50C2F24B
:1013900000000268D16841F01001D16040F6790187
:1013A000C2F200014FF4007205F012FE80BD000091
:1013B00080B58CB00020ADF82C0040F67800C2F269
:1013C00000000078B0FA80F0410940F67900C2F2DE
:1013D000000000EB41200A90FFE740F67A40C2F29D
:1013E00000000088BDF82C10401A02280CDCFFE732
:1013F00040F67A40C2F200000088BDF82C10401A76
:10140000ADF82E0000F023BE0A98BDF82C10405C09
:10141000A52840F00686FFE70A98BDF82C1008447E
:1014200001790891042100F057FF0146089888428D
:1014300040F0F785FFE70A98BDF82C100844B0F893
:10144000010040F25451C2F20001488040F67A4057
:10145000C2F200000088BDF82C20801A49880931AA
:1014600088420CDAFFE740F67A40C2F200000088BA
:10147000BDF82C10401AADF82E0000F0E8BD0A9817
:1014800040F25451C2F200014988BDF82C201044AA
:101490000731425A079200F0E9FE01460798884258
:1014A00040F0B885FFE70A98BDF82C100844B0F862
:1014B000051040F25450C2F20000C180C0880146BD
:1014C0000691012800F0B380FFE70698022800F09B
:1014D000D580FFE70698032800F0DC80FFE7069838
:1014E000042800F07581FFE7069840F20111884258
:1014F00000F08481FFE70698B0F5817F00F08A81D3
:10150000FFE7069840F20311884200F0A481FFE74C
:101510000698B0F5827F00F0B881FFE7069840F2A8
:101520000511884200F0C481FFE7069840F20121CE
:10153000884200F0C981FFE7069840F20221884204
:1015400000F03E82FFE7069840F20321884200F057
:101550007F82FFE70698B0F5017F00F09382FFE7F6
:10156000069840F20521884200F09882FFE706982D
:1015700040F20621884200F09D82FFE7069840F283
:101580000721884200F0D182FFE70698B0F5027F7C
:1015900000F0EC82FFE7069840F20921884200F053
:1015A0000883FFE7069840F20A21884200F01F8373
:1015B000FFE7069840F20B21884200F01584FFE710
:1015C0000698B0F5037F00F06584FFE7069840F2C7
:1015D0000131884200F03283FFE7069840F2023181
:1015E000884200F08684FFE7069840F20331884283
:1015F00000F06F83FFE70698B0F5417F00F093831A
:10160000FFE7069840F20531884200F0C783FFE704
:10161000069840F20631884200F0B784FFE706984A
:1016200040F20731884200F0B18400F0E6BC0A992C
:10163000BDF82C000844C07900F00F0240F254516C
:10164000C2F20001087A00F0F000104408720A9A11
:10165000BDF82C001044C279087A02F0F00200F0C4
:101660000F00104408720A9ABDF82C000244107A48
:10167000527A40EA0220488100F0C0BC0A99BDF8C5
:101680002C000844C07940F25451C2F200010873A2
:1016900000F0B4BC0A99BDF82C000144C879097A5D
:1016A00040EA012040F25451C2F200010591C88184
:1016B0000A9ABDF82C000244507A927A40EA02203D
:1016C00008820A9ABDF82C000244D07A127B40EAC4
:1016D000022048820A9ABDF82C000244507B927B7B
:1016E00040EA022088820A9ABDF82C000244D07B8E
:1016F000127C40EA0220C8820A9ABDF82C000244FB
:10170000507C927C40EA022008830A9ABDF82C00A3
:101710000244D07C127D40EA022048830A9ABDF838
:101720002C000244507D927D40EA022088830A9A70
:10173000BDF82C000244D07D127E40EA0220C8830E
:101740000A9ABDF82C000244507E927E40EA0220A4
:1017500008840A9ABDF82C000244D07E127F40EA29
:10176000022048840A9ABDF82C000244507F927FE0
:1017700040EA022088840A9ABDF82C000244D07FF7
:1017800092F8202040EA0220C8840A9ABDF82C0072
:10179000024492F8210092F8222040EA02200885B3
:1017A0000A9ABDF82C00024492F8230092F82420F3
:1017B00040EA022048850A9ABDF82C00024492F8BB
:1017C000250092F8262040EA0220888500F016BC09
:1017D0000A99BDF82C000844C07940F25451C2F275
:1017E000000181F82E000A9ABDF82C000244107AFC
:1017F000527A40EA0220088600F000BC0A99BDF83F
:101800002C000844D0F8070040F25451C2F2000105
:101810004863F3E30A99BDF82C000844C07940F20C
:101820005451C2F2000181F838000A9ABDF82C0028
:101830001044007A81F839000A9ABDF82C0010444F
:10184000407A81F83A000A9ABDF82C001044807A58
:1018500081F83B00D2E30A99BDF82C000844C07916
:1018600040F25451C2F2000181F83C000A9ABDF8DE
:101870002C001044007A81F83D000A9ABDF82C0033
:101880001044407A81F83E00B8E30A99BDF82C0074
:101890000844C07940F25451C2F2000181F83F007F
:1018A0000A9ABDF82C001044007A81F84000A5E3A4
:1018B0000A99BDF82C000844C07940F25451C2F294
:1018C000000181F8410099E30A99BDF82C00084411
:1018D000C07940F25451C2F20001049181F84200F3
:1018E0000A9ABDF82C001044007A81F843000A9A45
:1018F000BDF82C000244507A927A40EA0220A1F806
:1019000044000A9ABDF82C000244D07A127B40EAC7
:101910000220A1F846000A9ABDF82C000244507B30
:10192000927B40EA0220A1F848000A9ABDF82C00F8
:101930000244D07B127C40EA0220A1F84A000A9AB5
:10194000BDF82C000244507C927C40EA0220A1F8B1
:1019500054000A9ABDF82C001044C07C00F001022B
:1019600091F8560000F0FE00104481F856000A9AE3
:10197000BDF82C001044C07C00F0020291F8560023
:1019800000F0FD00104481F856000A9ABDF82C00C2
:101990001044C07C00F0040291F8560000F0FB00F7
:1019A000104481F856000BF01BFB44F24021C0F2BA
:1019B0000F01084440F6C051C2F2000108601DE367
:1019C0000A99BDF82C000144C879097A40EA01203F
:1019D00040F25451C2F20001A1F858000A9ABDF831
:1019E0002C000244507A927A40EA0220A1F85A0070
:1019F0000A9ABDF82C001044D0F80B00C8650A9A6A
:101A0000BDF82C000244D07B127C40EA0220A1F8F1
:101A100060000A9ABDF82C000244507C927C40EA97
:101A20000220A1F862000A9ABDF82C000244D07C82
:101A3000127D40EA0220A1F864000A9ABDF82C0049
:101A40000244507D927D40EA0220A1F86600D5E272
:101A50000A99BDF82C000844D0F8070040F2545110
:101A6000C2F2000188660A9ABDF82C001044D0F832
:101A70000B00C8660A9ABDF82C001044D0F80F007D
:101A80000867BBE20A99BDF82C000844C07940F20F
:101A90005451C2F2000181F87400AFE20A99BDF816
:101AA0002C000844C07940F25451C2F2000181F880
:101AB0007500A3E20A99BDF82C000844C07900F033
:101AC0000F0240F25450C2F2000090F8761001F07C
:101AD000F001114480F876100A9ABDF82C101144D8
:101AE000CA7990F8761002F0F00201F00F0111446B
:101AF00080F8761090F8760000F00F00012813DBD4
:101B0000FFE740F25450C2F2000090F8760000F077
:101B10000F00042808DCFFE740F67941C2F200011B
:101B2000087801300870FFE768E20A99BDF82C00D8
:101B30000844C07940F25451C2F2000181F87800A3
:101B40000A9ABDF82C001044007A81F879000A9AAC
:101B5000BDF82C001044407A81F87A000A9ABDF84A
:101B60002C001044D0F80A00C86747E20A99BDF873
:101B70002C000144C879097A40EA012040F254510E
:101B8000C2F20001A1F880000A9ABDF82C000244BC
:101B9000507A927A40EA0220A1F882000A9ABDF8AF
:101BA0002C000244D07A127B40EA0220A1F8840083
:101BB00024E20A99BDF82C0000EB010C9CF80B0004
:101BC000C0079CF807109CF808209CF809309CF886
:101BD0000AC040EA0C6040EA034040EA02200844A0
:101BE00040F25451C2F20001C1F8880006E20A999D
:101BF000BDF82C000844C07940F25451C2F20001F3
:101C000081F88C000A9ABDF82C001044007A81F803
:101C10008D000A9ABDF82C000244507A927A40EA6C
:101C20000220A1F88E000A9ABDF82C000244D07A56
:101C3000127B40EA0220A1F89000DFE10A99BDF88A
:101C40002C000144C879097A40EA012040F254513D
:101C5000C2F20001A1F892000A9ABDF82C000244D9
:101C6000507A927A40EA0220A1F894000A9ABDF8CC
:101C70002C000244D07A127B40EA0220A1F89600A0
:101C80000020ADF82600FFE7BDF8260040F25451D1
:101C9000C2F2000149880639884219DAFFE70A9939
:101CA000BDF82630BDF82C0018440844407B40F2B3
:101CB0005452C2F200025188DB431944114481F8A6
:101CC0009200FFE7BDF826000130ADF82600DBE703
:101CD00094E10A99BDF82C000844D0F8070040F2BE
:101CE0005451C2F20001C1F84C020A9ABDF82C000E
:101CF0001044D0F80B00C1F850020A9ABDF82C002D
:101D00001044C07B81F854020A9ABDF82C0010449C
:101D1000007C81F855020A9ABDF82C001044407CE2
:101D200081F856026AE10A99BDF82C000144C8798D
:101D3000097A40EA012040F25451C2F20001A1F8B0
:101D400064020A9ABDF82C000244507A927A40EA62
:101D50000220A1F866020A9ABDF82C000244D07A4B
:101D6000127B40EA0220A1F868020A9ABDF82C0012
:101D70001044407B81F86A020A9ABDF82C00104496
:101D8000807B81F86B020A9ABDF82C000244D07B5C
:101D9000127C40EA0220A1F86C022FE10A99BDF8FA
:101DA0002C000144C879097A40EA012140F25450DC
:101DB000C2F20000A0F858120A9ABDF82C10114483
:101DC000B1F8091000EE101AB8EEC00A80ED970ABB
:101DD0000A9ABDF82C101144497B00EE101AB8EE97
:101DE000400A80ED980A09E10A99BDF82C000844E0
:101DF000D0F8070040F25451C2F200010391C1F83B
:101E000084020A9ABDF82C001044D0F80B00C1F8E7
:101E100088020A9ABDF82C001044D0F80F00C1F8CF
:101E20008C020A9ABDF82C001044D0F81300C1F8B7
:101E300090020A9ABDF82C001044D0F81700C1F89F
:101E400094020A9ABDF82C001044D0F81B00C1F887
:101E500098020A9ABDF82C001044D0F81F00C1F86F
:101E60009C020A9ABDF82C001044D0F82300C1F857
:101E7000A0020A9ABDF82C001044D0F82700C1F83F
:101E8000A4020A9ABDF82C001044D0F82B00C1F827
:101E9000A802B3E00A99BDF82C000844C07940F2CA
:101EA0005451C2F2000181F8AC020A9ABDF82C002C
:101EB0001044007A81F8AD020A9ABDF82C00104453
:101EC000407A81F8AE020A9ABDF82C001044807A5C
:101ED00081F8AF020A9ABDF82C001044C07A81F84C
:101EE000B0020A9ABDF82C001044007B81F8B102C0
:101EF00084E00A99BDF82C000144C879097A40EAC7
:101F0000012040F25451C2F200010291A1F8B20244
:101F10000A9ABDF82C001044427AB1F8B40200F4D9
:101F200070401044A1F8B4020A9ABDF82C00104485
:101F3000827AB1F8B4026FF31F3040EA0230A1F8A0
:101F4000B4020A9ABDF82C001044C27AB1F8B60265
:101F500000F470401044A1F8B6020A9ABDF82C00B3
:101F60001044027BB1F8B6026FF31F3040EA023032
:101F7000A1F8B6020A9ABDF82C000244507B927B6D
:101F800040EA0220A1F8B80238E037E00A99BDF82B
:101F90002C000844C17940F25450C2F20000019074
:101FA00080F8BA120A9ABDF82C100A44117A527AB3
:101FB00041EA0221A0F8BC120A9ABDF82C100A448A
:101FC000917AD27A41EA0221A0F8BE120A9ABDF8AB
:101FD0002C1011440C3100F5307031220092FEF7C4
:101FE00012FA009A01980A9BBDF82C1019443D3151
:101FF00000F2F120FEF707FA00E0FFE740F254504C
:10200000C2F200004088BDF82C1008440930ADF839
:102010002C0005E0BDF82C000130ADF82C00FFE7E6
:1020200005E0BDF82C000130ADF82C00FFE7FFE71C
:10203000BDF82C0040F67A41C2F2000109888842BE
:10204000FFF6CBA9FFE70020ADF82E00FFE7BDF8B3
:102050002E000CB080BD000080B541F6CC00C2F26D
:10206000000001F013FB80BD80B541F64C20C2F2A8
:10207000000001F00BFB80BD80B541F6AC20C2F240
:10208000000001F003FB80BD80B541F62C10C2F2C8
:10209000000001F0FBFA80BD80B541F60C30C2F2C1
:1020A000000001F0F3FA80BD80B541F68C10C2F259
:1020B000000001F0EBFA80BD80B541F6EC10C2F2F1
:1020C000000001F0E3FA80BD82B001900198007831
:1020D00010384AF6AB21CAF6AA21A0FB011000096C
:1020E000009000994DF68C50C0F60000405C0199BC
:1020F000C8650098042807D3FFE7019908680422FF
:1021000062F30900886506E00199086840F2FF3231
:1021100090438865FFE70198806D02B0704700002A
:1021200086B0059000208DF813000598806A039012
:102130000598806910BBFFE70398029003281BD81D
:102140000299DFE801F0020D0218059890F82F00BF
:10215000C00720B1FFE701208DF81300FFE70CE076
:102160000598C06AB0F1C07F04D1FFE701208DF867
:102170001300FFE701E000E0FFE745E00598806914
:10218000B0F5005F25D1FFE70398019003281ED822
:102190000199DFE801F00206021101208DF8130019
:1021A00016E0059890F82F00C00720B1FFE7012046
:1021B0008DF81300FFE70BE00598C06AB0F1C07F0F
:1021C00004D1FFE701208DF81300FFE700E0FFE7EF
:1021D00019E003980090032804D3FFE70098032830
:1021E00004D00EE001208DF813000BE0059890F864
:1021F0002F00C00720B1FFE701208DF81300FFE793
:1022000000E0FFE7FFE7FFE79DF8130006B0704727
:1022100084B00390029101920093039801680868CA
:1022200020F48020086000980399096848600398AA
:102230008068402809D1FFE7019803990968886000
:10224000029803990968C86008E002980399096830
:102250008860019803990968C860FFE704B0704777
:102260007047000072B6FFE7FEE7000084B00290FE
:1022700001914FF6FF70ADF80000029828B9FFE712
:102280004FF6FF70ADF80E0021E0FFE70198411E08
:102290000191B8B1FFE70298411C029100788DF8D6
:1022A0000300BDF800109DF803004840C2B24DF68F
:1022B0009450C0F6000030F8120080EA1120ADF80A
:1022C0000000E3E7BDF80000ADF80E00FFE7BDF841
:1022D0000E0004B07047000083B002900191FF200F
:1022E0008DF80300FFE70198411E019198B1FFE7C7
:1022F0009DF8030002994A1C0292097848408DF823
:1023000002009DF802104DF69470C0F60000405C8B
:102310008DF80300E7E79DF8030003B07047000065
:1023200084B002900191029890F820008DF803008B
:102330009DF80300012805D0FFE79DF8030002285F
:102340000AD1FFE7019A0298016848691043486181
:1023500000208DF80F0008E00299486A40F48020C0
:10236000486201208DF80F00FFE79DF80F0004B0D0
:102370007047000088B00690059104920393069878
:1023800090F820008DF8070006980068806800909B
:102390000598806808B9FFE700E0FFE79DF80700AF
:1023A000012806D0FFE79DF80700022840F0808052
:1023B000FFE79DF80300400700280CD4FFE79DF8D5
:1023C00003000007002806D4FFE79DF80300C006BD
:1023D000002864D5FFE70098C0F3016002900299DD
:1023E00001208840039908600598806868B9FFE774
:1023F00005980168C06840EA415006990968029A48
:1024000001EB0211C1F880010EE005994A68886865
:10241000C96840EAC200084306990968029A01EBBC
:102420000211C1F88001FFE7059800690699096863
:10243000029A01EB0211C1F884010598007D012880
:102440000CD1FFE706980068029900EB0111D1F862
:10245000840140F48070C1F88401FFE7049840686B
:1024600006990968029A01EB0211C1F88C010498DF
:10247000006806990968029A01EB0211C1F8880107
:1024800006980068029900EB0111D1F8800140F034
:102490000100C1F8800100208DF81F0011E00699AD
:1024A000486A40F40010486201208DF81F0008E0DF
:1024B0000699486A40F48020486201208DF81F0088
:1024C000FFE79DF81F0008B07047000086B0049039
:1024D0000391049800680190049890F820008DF80A
:1024E00003009DF80300012806D0FFE79DF80300D4
:1024F000022840F0B080FFE746F20040C4F200003E
:1025000001900199D1F8000240F00100C1F80002E9
:102510000199D1F8000220F47C50C1F80002039820
:10252000426A0199D1F8000240EA0220C1F8000293
:102530000398406900F01F01012088400290029A30
:102540000199D1F81C029043C1F81C020398C0699C
:10255000F0B9FFE7029A0199D1F80C029043C1F853
:102560000C02039A9088D168526940EA01400199AF
:1025700001EBC201C1F84002039A108891685269C8
:1025800040EA0140019901EBC201C1F84402FFE7B2
:102590000398C06901281ED1FFE7029A0199D1F87A
:1025A0000C021043C1F80C02039A9088116852691A
:1025B00040EA0140019901EBC201C1F84002039ACF
:1025C00090899168526940EA0140019901EBC2018A
:1025D000C1F84402FFE70398806940B9FFE7029A17
:1025E0000199D1F804029043C1F8040207E0029A6D
:1025F0000199D1F804021043C1F80402FFE70398DF
:10260000006940B9FFE7029A0199D1F8140290439A
:10261000C1F8140207E0029A0199D1F8140210439C
:10262000C1F81402FFE70398006A012808D1FFE708
:10263000029A0199D1F81C021043C1F81C02FFE76D
:102640000199D1F8000220F00100C1F80002002039
:102650008DF8170008E00499486A40F48020486229
:1026600001208DF81700FFE79DF8170006B07047AE
:1026700081B0009001B0704786B00490039102923F
:102680000193049890F820008DF803009DF8030052
:10269000012806D0FFE79DF80300022840F0E880FB
:1026A000FFE7039880B9FFE704980068C0688007D7
:1026B00048B9FFE70499486A40F4001048620120D5
:1026C0008DF81700DDE00FE00498006800698007CE
:1026D00048B9FFE70499486A40F4001048620120B5
:1026E0008DF81700CDE0FFE704980068039900EB30
:1026F0000110D0F8B00100F004000299886002983F
:10270000806858B9FFE704980068039900EB01104E
:10271000D0F8B001400D029908600AE00498006802
:10272000039900EB0110D0F8B001C008029948608D
:10273000FFE704980068039900EB0110D0F8B0019E
:1027400000F002000299C86004980068039900EB49
:102750000110D0F8B40100F00F00082804D3FFE7FF
:102760000299082008610BE004980068039900EBC7
:102770000110D0F8B40100F00F0002990861FFE7E2
:1027800004980068039900EB0110D0F8B40180B2FE
:10279000000A0299886104980068039900EB01100F
:1027A000D0F8B401000C02994861049800680399BC
:1027B00000EB0110D0F8B801019908700498006886
:1027C000039900EB0110D0F8B801000A0199487094
:1027D00004980068039900EB0110D0F8B801000CD0
:1027E0000199887004980068039900EB0110D0F8F3
:1027F000B801000E0199C87004980068039900EBB5
:102800000110D0F8BC01019908710498006803997F
:1028100000EB0110D0F8BC01000A0199487104983E
:102820000068039900EB0110D0F8BC01000C01997D
:10283000887104980068039900EB0110D0F8BC017E
:10284000000E0199C871039838B9FFE70498016830
:10285000C86840F02000C86006E004980168086974
:1028600040F020000861FFE700208DF8170008E025
:102870000499486A40F48020486201208DF81700CE
:10288000FFE79DF8170006B07047000083B0029084
:1028900000200190029890F820008DF803009DF828
:1028A0000300012805D0FFE79DF80300022822D18C
:1028B000FFE70298006880684001002804D5FFE720
:1028C000019801300190FFE70298006880680001DC
:1028D000002804D5FFE7019801300190FFE7029836
:1028E00000688068C000002804D5FFE70198013027
:1028F0000190FFE7FFE7019803B0704780B58AB009
:10290000099000200890099800684069079009988C
:1029100000684068069009980068806805900998EA
:102920000068C068049009980068006903900998DD
:102930000068806902909DF81C00C007002800F024
:102940009480FFE79DF81400C00758B3FFE709988B
:102950000168012088609DF814008007002804D5D4
:10296000FFE7099800F0E2FD1BE09DF81400400726
:10297000002805D5FFE7089840F4006008900FE0B4
:102980009DF814000007002805D5FFE7089840F4DB
:102990008050089003E0099800F0C4FDFFE7FFE7CE
:1029A000FFE7FFE79DF81500C00760B3FFE7099850
:1029B00001684FF4807088609DF81500800700283A
:1029C00004D5FFE7099800F0B9FD1BE09DF815005C
:1029D0004007002805D5FFE7089840F4005008900C
:1029E0000FE09DF815000007002805D5FFE70898BF
:1029F00040F48040089003E0099800F09BFDFFE759
:102A0000FFE7FFE7FFE79DF81600C00760B3FFE7A9
:102A1000099801684FF4803088609DF8160080079F
:102A2000002804D5FFE7099800F090FD1BE09DF811
:102A300016004007002805D5FFE7089840F400403D
:102A400008900FE09DF816000007002805D5FFE765
:102A5000089840F48030089003E0099800F072FD77
:102A6000FFE7FFE7FFE7FFE7FFE79DF81C00000730
:102A7000002810D5FFE79DF81000C006002809D5F2
:102A8000FFE7089840F4007008900998016810204A
:102A9000C860FFE7FFE79DF81C00400700280FD53E
:102AA000FFE79DF810000007002808D5FFE7099808
:102AB00001680820C860099800F0D0FAFFE7FFE736
:102AC0009DF81C00800700280BD5FFE709980068D7
:102AD000C068800720B1FFE7099800F0C3FAFFE75C
:102AE000FFE79DF81C004006002810D5FFE79DF881
:102AF0000C00C006002809D5FFE7089840F4806064
:102B000008900998016810200861FFE7FFE79DF829
:102B10001C00800600280FD5FFE79DF80C00000779
:102B2000002808D5FFE7099801680820086109987E
:102B300000F076FBFFE7FFE79DF81C00C0060028C9
:102B40000BD5FFE7099800680069800720B1FFE70F
:102B5000099800F069FBFFE7FFE79DF81E0080077A
:102B600000280FD5FFE79DF81800C006002808D5FB
:102B7000FFE70998016810204860099800F088FC78
:102B8000FFE7FFE79DF81E00C00778B1FFE79DF85B
:102B900018000007002808D5FFE7099801680820F9
:102BA0004860099800F0D6FCFFE7FFE79DF81D009C
:102BB0000006002840F18D80FFE79DF818004007CF
:102BC000002840F18180FFE79DF81D00C00750B14B
:102BD000FFE79DF80800C00728B1FFE7089840F01C
:102BE00001000890FFE79DF81D00800700280BD525
:102BF000FFE79DF808008007002805D5FFE7089843
:102C000040F002000890FFE79DF81D0040070028F3
:102C10000BD5FFE79DF808004007002805D5FFE722
:102C2000089840F004000890FFE79DF81D00000799
:102C3000002848D5FFE79DF8080010F0700F42D03B
:102C4000FFE7029800F0700001460191102814D0AF
:102C5000FFE70198202815D0FFE70198302816D00B
:102C6000FFE70198402817D0FFE70198502818D0B7
:102C7000FFE70198602819D01DE0089840F008008F
:102C8000089019E0089840F01000089014E00898A7
:102C900040F0200008900FE0089840F040000890B5
:102CA0000AE0089840F08000089005E0089840F499
:102CB0008070089000E0FFE709980168886920F0BB
:102CC00070008861FFE7FFE7099801680420486009
:102CD000FFE7089848B1FFE7089A0999486A104346
:102CE00048620998FFF7C4FCFFE70AB080BD000006
:102CF00080B584B00290029820B9FFE701208DF8DA
:102D00000F00E0E0029890F8200020B9FFE7029859
:102D100000F0DEF8FFE702980168086840F0010063
:102D2000086001F073F90190FFE7029800684068BD
:102D3000C007A8B9FFE701F069F90199401A0B280B
:102D40000DD3FFE70299486A40F4003048620299C7
:102D5000052081F8200001208DF80F00B3E0E4E7A2
:102D600002980168086820F00200086001F04EF93E
:102D70000190FFE70298006840688007002815D599
:102D8000FFE701F043F90199401A0B280DD3FFE743
:102D90000299486A40F4003048620299052081F89F
:102DA000200001208DF80F008DE0E3E70298007EFF
:102DB000012807D1FFE702980168086840F0800009
:102DC000086006E002980168086820F0800008604A
:102DD000FFE70298407E012807D1FFE702980168CB
:102DE000086840F04000086006E002980168086842
:102DF00020F040000860FFE70298807E012807D19C
:102E0000FFE702980168086840F02000086006E0CB
:102E100002980168086820F020000860FFE7029827
:102E2000C07E012807D1FFE702980168086820F0FA
:102E30001000086006E002980168086840F0100081
:102E40000860FFE70298007F012807D1FFE702989A
:102E50000168086840F00800086006E00298016810
:102E6000086820F008000860FFE70298407F01280A
:102E700007D1FFE702980168086840F00400086085
:102E800006E002980168086820F004000860FFE787
:102E9000029B19685A689868D3F80CC040EA0C0085
:102EA000D3F810C040EA0C005B691843013A1043A4
:102EB000C861029900204862029A012182F820101C
:102EC0008DF80F00FFE79DF80F0004B080BD0000F3
:102ED00080B592B01190002010900F900E900D9040
:102EE0000C901198006846F20041C4F2000188423B
:102EF0004BD1FFE740F6E050C2F20000016801311B
:102F000001600068012812D1FFE7FFE700200B9065
:102F100043F64000C4F20200016841F00071016014
:102F2000006800F000700B900B98FFE7FFE7FFE7E9
:102F300000200A9043F63000C4F20200016841F01C
:102F400001010160006800F001000A900A98FFE7A3
:102F50004FF4C0500C90022004900D90002005907A
:102F60000E9003200F90092010900020C4F2020060
:102F70000CA900F057FE0499059A1420069001F060
:102F8000DDF8069801F0D0F866E01198006846F682
:102F90000001C4F2000188425DD1FFE7FFE7002095
:102FA000099043F64000C4F20200016841F08061DC
:102FB0000160006800F0806009900998FFE740F622
:102FC000E050C2F200000168013101600068012890
:102FD00012D1FFE7FFE70020089043F64000C4F25B
:102FE0000200016841F000710160006800F00070AB
:102FF00008900898FFE7FFE7FFE70020079043F6F7
:103000003000C4F20200016841F002010160006872
:1030100000F0020007900798FFE74FF440500C9033
:10302000022001900D90002002900E9003200F903E
:103030000920109040F20040C4F202000CA900F0F8
:10304000F1FD0199029A4120039001F077F803986D
:1030500001F06AF8FFE7FFE712B080BD81B0009091
:1030600001B0704780B582B0019040F29020C2F26A
:10307000000041F67C01C2F2000109F04DF8002881
:1030800040F0CC80FFE741F27000C2F2000008F08F
:1030900085FF30BBFFE740F6B061C2F2000108686F
:1030A0000130086040F68850C2F2000090ED020A3C
:1030B00041F27000C2F20000B0F90A0001EE100AFD
:1030C000F8EEC10A41F29000C2F2000009F098F84F
:1030D00040F68051C2F20001087840F0010008700B
:1030E000FFE740F65070C2F2000008F057FF30BB17
:1030F000FFE740F6B461C2F20001086801300860E1
:1031000040F68850C2F2000090ED030A40F650707D
:10311000C2F20000B0F90A0001EE100AF8EEC10A8E
:1031200040F67070C2F2000009F06AF840F6805173
:10313000C2F20001087840F002000870FFE740F694
:10314000C060C2F2000008F029FF30BBFFE740F684
:10315000B861C2F2000108680130086040F688508A
:10316000C2F2000090ED010A40F6C060C2F2000019
:10317000B0F90A0001EE100AF8EEC10A40F6E0606C
:10318000C2F2000009F03CF840F68051C2F20001A2
:10319000087840F004000870FFE740F6E070C2F2E3
:1031A000000008F0FBFE30BBFFE740F6BC61C2F256
:1031B000000108680130086040F68850C2F2000043
:1031C00090ED000A40F6E070C2F20000B0F90A008B
:1031D00001EE100AF8EEC10A41F20000C2F200004E
:1031E00009F00EF840F68051C2F20001087840F074
:1031F00008000870FFE740F63C60C2F2000008F0EB
:10320000DDFD08B9FFE7FFE741F2EC10C2F2000074
:1032100008F0D4FD08B9FFE7FFE7FFE702B080BD83
:1032200081B0009001B0704780B584B0039040F247
:103230003C20C2F2000041F6A401C2F2000108F0F5
:103240006BFF002840F01A81FFE705F013FE41F202
:103250009C20C2F2000008F0B1FD002855D1FFE724
:1032600041F29C20C2F2000090ED060A9FED841A04
:1032700030EE010A41F65000C2F20000019080EDEC
:10328000000A90ED000A09F093FF019841F64C0105
:10329000C2F2000181ED000A90ED000A09F0E0FEA3
:1032A00041F64400C2F2000080ED000A90ED000AF1
:1032B000B5EE400AF1EE10FA13DDFFE741F64C00DF
:1032C000C2F2000090ED000A9FED701A60EE010A54
:1032D00041F20810C2F200009FED6B0A08F090FF67
:1032E00012E041F64C00C2F2000090ED000A9FEDA2
:1032F000651A60EE010A41F20810C2F200009FED6B
:10330000620A08F07DFFFFE7FFE741F26830C2F292
:1033100000000078023801460091052800F29F80E5
:103320000099DFE801F0031E519C990341F22850F7
:10333000C2F2000090ED000A41F22C50C2F20000EF
:10334000D0ED000A41F23050C2F2000090ED001AB8
:1033500040F68850C2F200004FF4FA5108F082F8AB
:103360008BE041F22850C2F2000090ED002A41F6B5
:103370004400C2F2000090ED003A41F22C50C2F23B
:10338000000090ED001A41F64C00C2F2000090EDF2
:10339000004A21EE045A22EE030A30EE450A22EEDC
:1033A000042A21EE031A71EE020A41F20810C2F259
:1033B000000090ED101A40F68850C2F200004FF461
:1033C000FA5108F04FF858E041F20C30C2F2000018
:1033D000B0F91E00B7EE001ABFEE000A10F5167F16
:1033E000D8BFB0EE410A8DED020A41F22850C2F278
:1033F000000090ED002A41F64400C2F2000090ED7A
:10340000003A41F22C50C2F2000090ED001A41F651
:103410004C00C2F2000090ED004A21EE045A22EE68
:10342000030A30EE450A22EE042A21EE031A71EE59
:10343000020A9DED021A41F29420C2F2000090EDC2
:10344000002A21EE021A40F68850C2F200004FF422
:10345000FA5108F007F810E005F05AF80DE040F6D0
:103460008850C2F200009FED081A0021B0EE410A18
:10347000F0EE410A07F0F6FFFFE7FFE704B080BD7A
:10348000DDCDBB3F00008CC20000000000008C427C
:1034900081B0009001B0704780B584B0029002986E
:1034A00090F8200001282FD1FFE70299022081F82F
:1034B000200002980168086820F00100086000F010
:1034C000A5FD0190FFE7029800684068C007A8B119
:1034D000FFE700F09BFD0199401A0B280DD3FFE791
:1034E0000299486A40F4003048620299052081F848
:1034F000200001208DF80F000FE0E4E70299002082
:1035000048628DF80F0008E00299486A40F40020F4
:10351000486201208DF80F00FFE79DF80F0004B00E
:1035200080BD000081B0009001B0704781B0009074
:1035300001B0704781B0009001B0704781B0009039
:1035400001B0704781B0009001B0704781B0009029
:1035500001B0704781B0009001B0704780B584B071
:1035600002900298806D019000F050FD009002984A
:1035700090F8350002280DD0FFE7029980204865B9
:10358000FFE70299002081F83400FFE701208DF861
:103590000F0055E002980168086820F016000860E6
:1035A00002980168486920F0800048610298006C28
:1035B00020B9FFE70298806C38B1FFE702980168F4
:1035C000086820F008000860FFE7029801680868B2
:1035D00020F001000860FFE7029800680068C0075B
:1035E000C8B1FFE700F012FD0099401A062811D378
:1035F000FFE70299202048650299032081F83500F1
:10360000FFE70299002081F83400FFE703208DF8DE
:103610000F0015E0E0E70298C16D3F208840019956
:1036200088600299012081F83500FFE702990020A7
:1036300081F83400FFE7FFE700208DF80F00FFE777
:103640009DF80F0004B080BD82B00090009890F803
:103650003500022807D0FFE7009980204865012047
:103660008DF807000EE00099052081F835000098DC
:103670000168086820F001000860FFE700208DF86D
:103680000700FFE79DF8070002B0704780B586B0DD
:1036900005900020039040F22000C2F20000006874
:1036A00048F2B511C1F64E31A0FB0110800A02901C
:1036B0000598806D01900198006804900498059920
:1036C000C96DC840000700281AD5FFE705980068B3
:1036D00000684007002812D5FFE7059801680868D0
:1036E00020F0040008600598C16D08208840019909
:1036F00088600599486D40F001004865FFE7FFE7E5
:1037000004980599C96DC840C007A0B1FFE70598A6
:1037100000684069000600280CD5FFE70598C16DD8
:1037200001208840019988600599486D40F00200A9
:103730004865FFE7FFE704980599C96DC840400751
:10374000002814D5FFE70598006800688007002866
:103750000CD5FFE70598C16D042088400199886069
:103760000599486D40F004004865FFE7FFE70498BD
:103770000599C96DC840C006002847D5FFE70598E0
:1037800000680068000700283FD5FFE70598C16D75
:1037900010208840019988600598006800684003FF
:1037A00000281AD5FFE70598006800680003002884
:1037B00009D4FFE70598006C20B1FFE70598016C7C
:1037C0008847FFE708E00598806C20B1FFE705987F
:1037D000816C8847FFE7FFE716E0059800680068FE
:1037E000C005002807D4FFE705980168086820F0A5
:1037F00008000860FFE70598006C20B1FFE7059816
:10380000016C8847FFE7FFE7FFE7FFE704980599AA
:10381000C96DC8408006002840F18D80FFE70598FB
:1038200000680068C006002840F18480FFE7059822
:10383000C16D2020884001998860059890F8350076
:10384000052834D1FFE705980168086820F01600C4
:10385000086005980168486920F080004861059873
:10386000006C20B9FFE70598806C38B1FFE7059838
:103870000168086820F008000860FFE70598C16D3E
:103880003F208840019988600599012081F8350022
:10389000FFE70599002081F83400FFE70598006DE7
:1038A00020B1FFE70598016D8847FFE77BE00598A9
:1038B00000680068400300281AD5FFE705980068F3
:1038C00000680003002809D4FFE70598406C20B188
:1038D000FFE70598416C8847FFE708E00598C06B53
:1038E00020B1FFE70598C16B8847FFE7FFE720E0BD
:1038F000059800680068C005002811D4FFE7059806
:103900000168086820F0100008600599012081F81E
:103910003500FFE70599002081F83400FFE7FFE755
:103920000598C06B20B1FFE70598C16B8847FFE79A
:10393000FFE7FFE7FFE70598406DA0B3FFE70598B5
:10394000406DC00730B3FFE70599052081F83500C9
:1039500005980168086820F001000860FFE70398F7
:10396000013003900299884201D9FFE707E0FFE7A1
:10397000059800680068C0070028F0D1FFE70599A6
:10398000012081F83500FFE70599002081F8340017
:10399000FFE7FFE70598C06C20B1FFE70598C16C11
:1039A0008847FFE7FFE706B080BD000080B586B01E
:1039B00004900020039000F029FB0290049820B9A5
:1039C000FFE701208DF81700A3E00498406A08B1D2
:1039D000FFE7FFE70499022081F83500FFE704992B
:1039E000002081F83400FFE704980168086820F09F
:1039F00001000860FFE7049800680068C00790B104
:103A0000FFE700F003FB0299401A06280AD3FFE7FC
:103A10000499202048650499032081F835008DF829
:103A2000170076E0E7E704980068006803900398C1
:103A300048F23F01CFF21001084003900499009131
:103A40004868D1F808C0CB680A6940EA0C001843FE
:103A500010434A6910438A691043CA691043096ACE
:103A600001430398084303900498406A042808D14E
:103A7000FFE70499C86A096B014303980843039060
:103A8000FFE7039804990968086004980068406992
:103A90000390039820F0070003900498416A03986C
:103AA000084303900498406A04281AD1FFE7049859
:103AB000816A0398084303900498C06A80B1FFE7C5
:103AC0000498FEF72DFB50B1FFE7049940204865AC
:103AD0000499012081F835008DF8170019E0FFE7FF
:103AE000FFE703980499096848610498FEF7ECFA27
:103AF00001900498C16D3F20884001998860049925
:103B000000204865049A012182F835108DF81700CD
:103B1000FFE79DF8170006B080BD000080B588B0B3
:103B2000069005910492039300208DF80B000698EF
:103B3000806D0190FFE7069890F83400012804D1C9
:103B4000FFE702208DF81F0045E00699012081F86B
:103B50003400FFE7FFE7069890F8350001282BD1E5
:103B6000FFE70699022081F8350006990020486594
:103B700006980599049A039BFEF74AFB0698C16DC7
:103B80003F2088400199886006980168086840F0E5
:103B9000160008600698006C38B1FFE706980168C7
:103BA000086840F008000860FFE7069801680868A8
:103BB00040F00100086009E0FFE70699002081F865
:103BC0003400FFE702208DF80B00FFE79DF80B00A3
:103BD0008DF81F00FFE79DF81F0008B080BD0000B2
:103BE00080B584B0039000F011FA02900398019020
:103BF0000198013048B1FFE740F2CC10C2F200005A
:103C00000178019808440190FFE7FFE700F0FEF912
:103C10000299401A0199884201D2FFE7F6E704B001
:103C200080BD00008EB00D900C9100200A9009908C
:103C300008900B90FFE70B980F2800F2CC81FFE76C
:103C40000B99012088400A900C9800680A99084056
:103C5000099009980A99884240F0B881FFE70C98CA
:103C6000406800F00300012807D0FFE70C98406887
:103C700000F0030002282FD1FFE70D98806808901C
:103C80000B984100032000FA01F10898884308903E
:103C90000C98C0680B99490000FA01F10898084394
:103CA000089008980D9988600D98406808900B99C5
:103CB000012000FA01F10898884308900C984068A8
:103CC000C0F300100B9900FA01F10898084308901E
:103CD00008980D994860FFE70C98406800F00300D1
:103CE000032818D0FFE70D98C06808900B98410092
:103CF000032000FA01F10898884308900C98806826
:103D00000B99490000FA01F10898084308900898B7
:103D10000D99C860FFE70C98406800F00300022886
:103D200026D1FFE70D980B996FF0030202EA5101CB
:103D30000844006A08900B9800F0070081000F20EB
:103D400000FA01F10898884308900C9800690B99D3
:103D500001F00701890000FA01F108980843089072
:103D600008980D990B9B02EA530211440862FFE781
:103D70000D98006808900B984100032000FA01F1AB
:103D80000898884308900C98406800F003000B994D
:103D9000490000FA01F108980843089008980D9925
:103DA00008600C9880798007002800F00E81FFE7FA
:103DB000FFE70020079043F64400C4F202000168C8
:103DC00041F480410160006800F48040079007984A
:103DD000FFE70B9820F0030043F60801C4F201014D
:103DE000405808900B9800F0030081000F2000FA63
:103DF00001F10898884308900D980021C4F202014F
:103E0000884203D1FFE7002006905EE00D9840F263
:103E10000041C4F20201884203D1FFE7012005906E
:103E200050E00D9840F60001C4F20201884203D12F
:103E3000FFE70220049042E00D9840F60041C4F2F2
:103E40000201884203D1FFE70320039034E00D987C
:103E500041F20001C4F20201884203D1FFE70420CD
:103E6000029026E00D9841F20041C4F2020188421E
:103E700003D1FFE70520019018E00D9841F60001FD
:103E8000C4F20201884203D1FFE7062000900AE055
:103E90000D9941F60042C4F202020820914208BF87
:103EA00007200090FFE700980190FFE7019802903B
:103EB000FFE702980390FFE703980490FFE7049858
:103EC0000590FFE705980690FFE70698C0B20B99AA
:103ED00001F00301890000FA01F1089808430890F5
:103EE00008980B9921F0030143F60802C4F201027D
:103EF000885043F60840C4F2010000680890099910
:103F00000898884308900C988079C006002805D549
:103F1000FFE70999089808430890FFE7089843F6D7
:103F20000841C4F20101086043F60C40C4F20100EC
:103F30000068089009990898884308900C9880793F
:103F40008006002805D5FFE70999089808430890DE
:103F5000FFE7089843F60C41C4F20101086043F6FC
:103F60000440C4F201000068089009990898884349
:103F700008900C9880798007002805D5FFE70999FB
:103F8000089808430890FFE7089843F60441C4F2F4
:103F90000101086043F60040C4F201000068089087
:103FA00009990898884308900C988079C00728B12F
:103FB000FFE70999089808430890FFE7089843F637
:103FC0000041C4F201010860FFE7FFE7FFE70B983B
:103FD00001300B902FE60EB07047000082B00190C8
:103FE000ADF802108DF801209DF8010028B1FFE71F
:103FF000BDF802000199886105E0BDF802000004E7
:1040000001998861FFE702B07047000041F6B06097
:10401000C2F200000068704740F2CC10C2F200000B
:10402000027841F6B061C2F20001086810440860ED
:104030007047000080B543F60041C4F202010868F1
:1040400040F400700860086840F480600860086808
:1040500040F480700860032000F08AF80F2000F020
:1040600005F800F03BF8002080BD000080B582B06C
:10407000009040F22000C2F20000006840F2CC1133
:10408000C2F200010A784FF47A71B1FBF2F1B0FB91
:10409000F1F000F06DFE20B1FFE701208DF8070080
:1040A00018E000980F280DD8FFE700994FF0FF3077
:1040B000002200F043F8009840F2D011C2F2000153
:1040C000086003E001208DF8070003E000208DF870
:1040D0000700FFE79DF8070002B080BD82B0FFE750
:1040E0000020019043F64400C4F20200016841F44C
:1040F00080410160006800F4804001900198FFE772
:10410000FFE70020009043F64000C4F2020001687F
:1041100041F080510160006800F0805000900098EC
:10412000FFE702B07047000080B582B08DF807004D
:104130009DF9070008F0D8FA02B080BD80B586B0BE
:104140008DF81700049103920020029008F0E4FA21
:1041500002909DF91700019002980499039A03F0C8
:1041600067FB0146019808F0DFFA06B080BD000049
:1041700080B582B00190019808F0F8FA02B080BDD5
:1041800080B584B002900191029820B9FFE7012028
:104190008DF80F0021E1019843F60041C4F20201BD
:1041A000096801F00701884212D9FFE7019943F637
:1041B0000040C4F202000170006800F0070001999D
:1041C000884204D0FFE701208DF80F0005E1FFE7EA
:1041D00002980078800700282AD5FFE70298007827
:1041E0004007002809D5FFE743F60801C4F20201A1
:1041F000086840F4E0500860FFE702980078000784
:10420000002809D5FFE743F60801C4F20201086857
:1042100040F460400860FFE743F60801C4F2020181
:10422000086820F0F000029A926810430860FFE7E7
:1042300002980078C00700286ED0FFE70298406817
:10424000012811D1FFE743F60000C4F20200006824
:1042500000F400310020B0EB514F04D1FFE7012002
:104260008DF80F00B9E02CE002984068022805D0D4
:10427000FFE702984068032811D1FFE743F60000EA
:10428000C4F20200006800F000710020B0EB516F32
:1042900004D1FFE701208DF80F009EE010E043F607
:1042A0000000C4F20200006800F002010020B0EB40
:1042B000510F04D1FFE701208DF80F008DE0FFE7DB
:1042C000FFE743F60801C4F20201086820F003008A
:1042D000029A526810430860FFF798FE0090FFE7CB
:1042E00043F60800C4F20200006800F00C000299D6
:1042F0004968B0EB810F0ED0FFE7FFF787FE00990A
:10430000401A41F28931884204D3FFE703208DF837
:104310000F0062E0E4E7FFE7019843F60041C4F2D2
:104320000201096801F00701884212D2FFE70199F2
:1043300043F60040C4F202000170006800F007007C
:104340000199884204D0FFE701208DF80F0044E076
:10435000FFE702980078400700280CD5FFE743F6F6
:104360000801C4F20201086820F4E050029AD26801
:1043700010430860FFE702980078000700280DD579
:10438000FFE743F60801C4F20201086820F4604028
:10439000029A126940EAC2000860FFE700F04CF898
:1043A00043F60801C4F202010968C9B20A094DF6D0
:1043B0007451C0F60001895CC84040F22001C2F28D
:1043C0000001086040F2D010C2F200000068FFF760
:1043D0004DFE00208DF80F00FFE79DF80F0004B0A0
:1043E00080BD000040F22000C2F20000006870476B
:1043F00080B5FFF7F7FF43F60801C4F20201096830
:10440000C1F382224DF68451C0F60001895CC84098
:1044100080BD000080B5FFF7E5FF43F60801C4F258
:104420000201096889B24A0B4DF68451C0F60001B9
:10443000895CC84080BD000080B586B00020059032
:1044400004900390029043F60800C4F20200006852
:1044500000F00C000146019140B1FFE701980428EB
:104460000AD0FFE7019808280CD04FE042F2004044
:10447000C0F2F40002904FE041F20020C0F27A0056
:10448000029049E043F60400C4F20200016801F022
:104490003F01059100684002002813D5FFE743F66D
:1044A0000400C4F202000068C0F3881041F2002149
:1044B000C0F27A01A0FB0101059A0023FBF70CFF73
:1044C000049012E043F60400C4F202000068C0F356
:1044D000881042F20041C0F2F401A0FB0101059AEC
:1044E0000023FBF7F9FE0490FFE743F60400C4F253
:1044F0000200006800F44031022000EBD13003904C
:1045000004980399B0FBF1F0029005E042F20040FC
:10451000C0F2F4000290FFE7029806B080BD0000F0
:1045200080B586B00490049820B9FFE701208DF88B
:10453000170050E304980078C007002800F0A58019
:10454000FFE743F60800C4F20200006800F00C0028
:10455000042813D0FFE743F60800C4F20200006805
:1045600000F00C0008281ED1FFE743F60400C4F257
:10457000020000684002002815D5FFE743F600005E
:10458000C4F20200006800F400310020B0EB514F8B
:1045900008D0FFE70498406820B9FFE701208DF8B4
:1045A000170018E370E0FFE704984068B0F5803F1B
:1045B00009D1FFE743F60001C4F20201086840F4A4
:1045C0008030086020E004984068B0F5A02F0DD13D
:1045D000FFE743F60001C4F20201086840F48020BE
:1045E0000860086840F4803008600CE043F6000181
:1045F000C4F20201086820F480300860086820F4E2
:1046000080200860FFE7FFE7FFE704984068E8B113
:10461000FFE7FFF7FBFC0390FFE743F60000C4F25F
:104620000200006800F400310020B0EB514F0CD1C3
:10463000FFE7FFF7EBFC0399401A652804D3FFE777
:1046400003208DF81700C6E2E7E71CE0FFF7DEFC69
:104650000390FFE743F60000C4F20200006800F494
:1046600000310020B0EB514F0CD0FFE7FFF7CEFC3C
:104670000399401A652804D3FFE703208DF817003B
:10468000A9E2E7E7FFE7FFE7FFE704980078800784
:10469000002840F19680FFE743F60800C4F20200CC
:1046A000006810F00C0F13D0FFE743F60800C4F2C7
:1046B0000200006800F00C0008282CD1FFE743F648
:1046C0000400C4F2020000684002002823D4FFE77F
:1046D00043F60000C4F20200006800F0020100206E
:1046E000B0EB510F09D0FFE70498C068012804D04F
:1046F000FFE701208DF817006DE243F60001C4F2D8
:104700000201086820F0F800049A126940EAC20029
:104710000860FFE754E00498C06870B3FFE7002129
:10472000C4F2472101200860FFF770FC0390FFE707
:1047300043F60000C4F20200006800F0020100200D
:10474000B0EB510F0CD1FFE7FFF760FC0399401A63
:10475000032804D3FFE703208DF817003BE2E7E7C7
:1047600043F60001C4F20201086820F0F800049A40
:10477000126940EAC200086021E00021C4F247212A
:1047800000200860FFF742FC0390FFE743F60000BB
:10479000C4F20200006800F002010020B0EB510FEB
:1047A0000CD0FFE7FFF732FC0399401A032804D32B
:1047B000FFE703208DF817000DE2E7E7FFE7FFE7CB
:1047C000FFE704980078000700284BD5FFE704981E
:1047D000406918B3FFE740F68061C4F24721012029
:1047E0000860FFF713FC0390FFE743F67400C4F280
:1047F0000200006800F002010020B0EB510F0CD164
:10480000FFE7FFF703FC0399401A032804D3FFE7EF
:1048100003208DF81700DEE1E7E722E040F6806133
:10482000C4F2472100200860FFF7F0FB0390FFE788
:1048300043F67400C4F20200006800F00201002098
:10484000B0EB510F0CD0FFE7FFF7E0FB0399401AE4
:10485000032804D3FFE703208DF81700BBE1E7E747
:10486000FFE7FFE7049800784007002840F1CE807A
:10487000FFE700208DF8070043F64000C4F2020075
:104880000068C000002815D4FFE7FFE70020009073
:1048900043F64000C4F20200016841F0805101601B
:1048A000006800F0805000900098FFE701208DF82C
:1048B0000700FFE747F20000C4F200000068C005EF
:1048C000002822D4FFE747F20001C4F20001086883
:1048D00040F480700860FFF799FB0390FFE747F210
:1048E0000000C4F200000068C00500280CD4FFE7F7
:1048F000FFF78CFB0399401A032804D3FFE703203A
:104900008DF8170067E1EAE7FFE7FFE704988068A2
:10491000012809D1FFE743F67001C4F202010868DB
:1049200040F0010008601FE00498806805280DD160
:10493000FFE743F67001C4F20201086840F004008A
:104940000860086840F0010008600CE043F6700160
:10495000C4F20201086820F001000860086820F035
:1049600004000860FFE7FFE7FFE704988068F8B1FC
:10497000FFE7FFF74BFB0390FFE743F67000C4F23D
:104980000200006800F002010020B0EB510F0ED1D0
:10499000FFE7FFF73BFB0399401A41F28931884258
:1049A00004D3FFE703208DF8170014E1E5E71EE0CC
:1049B000FFF72CFB0390FFE743F67000C4F2020000
:1049C000006800F002010020B0EB510F0ED0FFE7AD
:1049D000FFF71CFB0399401A41F28931884204D346
:1049E000FFE703208DF81700F5E0E5E7FFE79DF806
:1049F0000700012809D1FFE743F64001C4F2020194
:104A0000086820F080500860FFE7FFE7049880699D
:104A1000002800F0DC80FFE743F60800C4F2020043
:104A2000006800F00C00082800F08580FFE704987B
:104A3000806902285CD1FFE76021C4F24721002091
:104A40000860FFF7E3FA0390FFE743F60000C4F2C3
:104A50000200006800F000710020B0EB516F0CD034
:104A6000FFE7FFF7D3FA0399401A032804D3FFE7BF
:104A700003208DF81700AEE0E7E70499C869D1F884
:104A800020C04B6A8A6A40EA0C0040EA8310D203D5
:104A90004FF6FF739A43A2F580321043C96A40EA89
:104AA000016043F60401C4F2020108606021C4F20F
:104AB000472101200860FFF7A9FA0390FFE743F6BA
:104AC0000000C4F20200006800F000710020B0EBAA
:104AD000516F0CD1FFE7FFF799FA0399401A0328A9
:104AE00004D3FFE703208DF8170074E0E7E721E027
:104AF0006021C4F2472100200860FFF787FA039085
:104B0000FFE743F60000C4F20200006800F0007105
:104B10000020B0EB516F0CD0FFE7FFF777FA039955
:104B2000401A032804D3FFE703208DF8170052E052
:104B3000E7E7FFE74AE004988069012804D1FFE72E
:104B400001208DF8170046E043F60400C4F202008D
:104B50000068029004988069012831D0FFE702982C
:104B600000F480000499C969884229D1FFE70298BE
:104B700000F03F000499096A884221D1FFE70298BA
:104B800047F6C07108400499496AB0EB811F17D1FC
:104B9000FFE7029800F440300499896AC9034FF690
:104BA000FF729143A1F58031884209D1FFE7029855
:104BB00000F070600499C96AB0EB016F04D0FFE7A0
:104BC00001208DF8170006E0FFE7FFE7FFE7002070
:104BD0008DF81700FFE79DF8170006B080BD0000B4
:104BE00080B584B00290029820B9FFE701208DF8CB
:104BF0000F0071E00298406A60B9FFE702984068D0
:104C0000B0F5827F01D1FFE703E002990020C8617F
:104C1000FFE705E002990020086102994861FFE77B
:104C2000029900208862029890F8510040B9FFE78D
:104C30000299002081F85000029800F051F8FFE737
:104C40000299022081F8510002980168086820F05A
:104C500040000860029A019211685068D2F808C0BA
:104C6000D36800F482700CF4044C604403F40063D5
:104C70001844136903F002031844536903F0010355
:104C80001844936903F400731844D36903F038039C
:104C90001844136A03F080031843926A02F4005226
:104CA00010430860029A508B00F004001168526AA9
:104CB00002F010021044486002980168C86920F4AC
:104CC0000060C861029900204865029A012182F8BB
:104CD00051108DF80F00FFE79DF80F0004B080BD64
:104CE00080B588B00790002006900590049003904E
:104CF00002900798006843F20001C4F20101884263
:104D000033D1FFE7FFE70020019043F64400C4F2EF
:104D10000200016841F480510160006800F4805095
:104D200001900198FFE7FFE70020009043F6300074
:104D3000C4F20200016841F001010160006800F066
:104D4000010000900098FFE7E0200290022003900D
:104D50000020049003200590052006900020C4F256
:104D6000020002A9FEF75EFFFFE708B080BD000069
:104D700080B582B00190019802F094FD02B080BD30
:104D800081B0009001B0704781B0009001B07047D1
:104D900085B003900291FFE7039890F83C0001284A
:104DA00004D1FFE702208DF813007EE00399012073
:104DB00081F83C00FFE7FFE70399022081F83D00FE
:104DC000039800684068019003980068806800902C
:104DD000019820F070000190029801680198084342
:104DE00001900198039909684860039800680021C0
:104DF000C4F2010188423CD0FFE703980068B0F19B
:104E0000804F36D0FFE70398006840F20041C4F2BB
:104E1000000188422DD0FFE70398006840F60001AA
:104E2000C4F20001884224D0FFE70398006840F6EE
:104E30000041C4F2000188421BD0FFE703980068DC
:104E400040F20041C4F20101884212D0FFE703980A
:104E5000006844F20001C4F20101884209D0FFE772
:104E60000398006841F60001C4F2000188420ED1A7
:104E7000FFE7009820F080000090029841680098B9
:104E8000084300900098039909688860FFE7039938
:104E9000012081F83D00FFE70399002081F83C00E4
:104EA000FFE700208DF81300FFE79DF8130005B021
:104EB0007047000080B582B00090009820B9FFE7ED
:104EC00001208DF807003FE0009890F83D0040B9C0
:104ED000FFE70099002081F83C00009800F038F8C6
:104EE000FFE70099022081F83D00009951F8040B7A
:104EF00002F038FD0099012081F84600FFE7009993
:104F0000012081F83E00009981F83F00009981F866
:104F10004000009981F84100FFE7FFE70099012078
:104F200081F84200009981F84300009981F844001B
:104F3000009981F84500FFE70099012081F83D00C4
:104F400000208DF80700FFE79DF8070002B080BD44
:104F500080B58CB00B900B980068B0F1804F1BD1DE
:104F6000FFE7FFE700200A9043F64000C4F202008A
:104F7000016841F001010160006800F001000A9041
:104F80000A98FFE71C20059000221146FFF7D6F88B
:104F90000598FFF7C9F893E00B98006840F20041CC
:104FA000C4F2000188421BD1FFE7FFE7002009900F
:104FB00043F64000C4F20200016841F002010160C2
:104FC000006800F0020009900998FFE71D20049096
:104FD00004210022FFF7B2F80498FFF7A5F86EE06D
:104FE0000B98006840F60041C4F2000188421BD1D2
:104FF000FFE7FFE70020089043F64000C4F20200FC
:10500000016841F008010160006800F008000890A4
:105010000898FFE73220039004210022FFF78EF862
:105020000398FFF781F849E00B98006841F20041CE
:10503000C4F2000188421BD1FFE7FFE70020079080
:1050400043F64000C4F20200016841F02001016013
:10505000006800F0200007900798FFE737200290D3
:1050600004210022FFF76AF80298FFF75DF824E0B8
:105070000B98006840F20041C4F2010188421BD144
:10508000FFE7FFE70020069043F64400C4F2020069
:10509000016841F002010160006800F00200069022
:1050A0000698FFE72C20019003210022FFF746F825
:1050B0000198FFF739F8FFE7FFE7FFE7FFE7FFE7B2
:1050C0000CB080BD83B00190019890F83D0001289C
:1050D00004D0FFE701208DF80B006AE0019902205F
:1050E00081F83D0001980168C86840F00100C8607F
:1050F000019800680021C4F2010188423CD0FFE71A
:1051000001980068B0F1804F36D0FFE70198006841
:1051100040F20041C4F2000188422DD0FFE701981F
:10512000006840F60001C4F20001884224D0FFE785
:105130000198006840F60041C4F2000188421BD08B
:10514000FFE70198006840F20041C4F20101884283
:1051500012D0FFE70198006844F20001C4F2010197
:10516000884209D0FFE70198006841F60001C4F2C7
:105170000001884212D1FFE701980068806800F0C2
:10518000070000900098062807D0FFE70198016803
:10519000086840F001000860FFE706E00198016838
:1051A000086840F001000860FFE700208DF80B0060
:1051B000FFE79DF80B0003B07047000080B586B094
:1051C0000490039100208DF80B00FFE7049890F8FD
:1051D0003C00012804D1FFE702208DF81700ABE066
:1051E0000499012081F83C00FFE7FFE704990220C1
:1051F00081F83D000498006880680190019820F0D3
:1052000077000190019820F47F4001900198049963
:1052100009688860039800680090002872D0FFE752
:10522000009810286ED0FFE7009820286AD0FFE78A
:105230000098302866D0FFE70098402855D0FFE757
:105240000098502837D0FFE70098602840D0FFE74B
:10525000009870280BD0FFE70098B0F5805F05D06C
:10526000FFE70098B0F5005F16D052E055E00498D3
:105270000068039B5A689968DB6802F04BFC04984D
:10528000006880680190019840F0770001900198D3
:1052900004990968886040E004980068039B5A6894
:1052A0009968DB6802F036FC04980168886840F46D
:1052B0008040886031E004980068039A5168D268A1
:1052C00002F058FC04980068502102F03DFC24E0F4
:1052D00004980068039A5168D26802F073FC04983D
:1052E0000068602102F030FC17E004980068039A1F
:1052F0005168D26802F03EFC04980068402102F038
:1053000023FC0AE0049800680399096802F01CFC79
:1053100003E001208DF80B00FFE70499012081F8DC
:105320003D00FFE70499002081F83C00FFE79DF86D
:105330000B008DF81700FFE79DF8170006B080BD41
:1053400081B0009001B0704780B584B0039003989D
:105350000068C068029003980068006901909DF899
:1053600004008007002824D5FFE79DF80800800787
:1053700000281DD5FFE7039801686FF0020008615F
:10538000039901200877039800688069800720B19D
:10539000FFE70398FFF7D4FF06E0039800F0E2F878
:1053A000039800F0E3F8FFE7039900200877FFE790
:1053B000FFE79DF804004007002825D5FFE79DF88A
:1053C0000800400700281ED5FFE7039801686FF02A
:1053D0000400086103990220087703980068806937
:1053E00010F4407F04D0FFE70398FFF7A9FF06E021
:1053F000039800F0B7F8039800F0B8F8FFE70399B6
:1054000000200877FFE7FFE79DF804000007002869
:1054100024D5FFE79DF80800000700281DD5FFE709
:10542000039801686FF00800086103990420087769
:1054300003980068C069800720B1FFE70398FFF771
:105440007FFF06E0039800F08DF8039800F08EF8D7
:10545000FFE7039900200877FFE7FFE79DF80400C6
:10546000C006002825D5FFE79DF80800C0060028E3
:105470001ED5FFE7039801686FF0100008610399DB
:105480000820087703980068C06910F4407F04D0B2
:10549000FFE70398FFF754FF06E0039800F062F877
:1054A000039800F063F8FFE7039900200877FFE70F
:1054B000FFE79DF80400C00778B1FFE79DF80800FA
:1054C000C00748B1FFE7039801686FF00100086169
:1054D000039800F051F8FFE7FFE79DF8040000068D
:1054E000002810D5FFE79DF808000006002809D520
:1054F000FFE7039801686FF0800008610398FFF7E9
:105500003FFCFFE7FFE79DF804004006002810D5A8
:10551000FFE79DF808004006002809D5FFE703983B
:1055200001686FF040000861039800F0C1FFFFE7D9
:10553000FFE79DF804008006002810D5FFE79DF8DE
:1055400008008006002809D5FFE7039801686FF07E
:10555000200008610398FFF717FCFFE7FFE704B09E
:1055600080BD000081B0009001B0704781B0009014
:1055700001B0704700000000F0B5BDB03C903C9811
:1055800041F60C41C2F20001884240F02E81FFE753
:1055900004F094F804F04CFC41F20310C2F2000055
:1055A000807848B9FFE703F073FD41F20311C2F2BE
:1055B000000101208870C3E02EA82D903821FAF751
:1055C00099FF41F26830C2F2000000788DF8B8000F
:1055D00041F28C20C2F2000000788DF8B90041F24F
:1055E0000C30C2F200002C90018CADF8BA10802172
:1055F00006F0F8F901462C988DF8BC10202106F031
:10560000F1F901462D988DF8BD1040F6D851C2F23F
:1056100000010968309140F6D051C2F200010968DA
:10562000319140F6DC51C2F200010968329140F636
:10563000D451C2F200010968339140F6C851C2F258
:1056400000010968349140F63461C2F20001096832
:10565000359141F22851C2F200010968369141F2B8
:105660002C51C2F200010968379141F64C01C2F297
:1056700000010968389141F64401C2F2000109684D
:10568000399140F63C61C2F200013A9141F2EC11CD
:10569000C2F200013B9103F067F941F20310C2F23C
:1056A00000004078F0B9FFE704F040FC8DED2B0AD4
:1056B00004F08CFCDDED2B1AB0EE402A40F63C6085
:1056C000C2F2000002219FED741AB0EE410AF0EE22
:1056D000410A06F09FFA41F20311C2F200010120D3
:1056E000487026E041F20310C2F200004078012821
:1056F0001ED1FFE704F01AFC8DED2A0A04F074FCB9
:10570000DDED2A1AB0EE402A41F2EC10C2F20000A0
:1057100001219FED611AB0EE410AF0EE410A06F058
:1057200079FA41F20311C2F2000100204870FFE74C
:10573000FFE741F20311C2F2000100208870FFE789
:1057400041F65E00C2F2000001880131018000884C
:1057500042F2D042C0F2061247F6D501C2F2E96128
:1057600000FB01204FEA30104CF29A41C0F22001B8
:10577000884239D8FFE741F20310C2F200004078B6
:10578000012811D1FFE740F63C60C2F20000B0F9F9
:105790000A00012808D0FFE740F63C60C2F2000092
:1057A000022106F0D9FA18E041F20310C2F200001B
:1057B000407888B9FFE741F2EC10C2F20000B0F97E
:1057C0000A00012808D0FFE741F2EC10C2F2000005
:1057D000012106F0C1FAFFE7FFE741F65E01C2F2E0
:1057E000000100200880FFE7FFE73C9841F65441A4
:1057F000C2F20001884245D1FFE740F24C00C2F2FC
:105800000000007810B3FFE740F68450C2F20000B9
:10581000B0F9002040F25451C2F20001B1F94A003F
:10582000B1F9623069464B60086040F23C20C2F238
:1058300000004FF4AB610023299306F095FC2998F2
:1058400040F24C01C2F2000108701AE040F25450DC
:10585000C2F20000B0F95420694600204860086098
:1058600040F23C20C2F2000040F2211101232893B3
:1058700006F07AFC289840F24C01C2F20001087050
:10588000FFE7FFE73C9841F6C431C2F200018842CD
:1058900040F00C861AE000BF0000000000BF00BF0F
:1058A0004AD8124DFB21F93F4AD8124DFB2109403D
:1058B00000008C420000CD4300002A440000C84391
:1058C00000402B440000D24300C0284441F6500061
:1058D000C2F200001E90006808F08EF941EC100B37
:1058E00051EC100B1FED120B53EC102B20931F9259
:1058F00008F094F841EC100B51EC100B07F0DEFDB2
:1059000000EE100A07F054FC1E9841F69864C2F2AB
:10591000000484ED000A006808F06EF91F9A209BCD
:1059200041EC100B51EC100B08F078F841EC100B27
:1059300051EC100B07F0C2FD00EE100A07F090FBCF
:105940001E9841F66401C2F20001249181ED000A23
:10595000006808F051F941EC100B51EC100B1FEDF1
:105960002E0B53EC102B1D931C9208F057F841ECB2
:10597000100B51EC100B07F0A1FD00EE100A07F020
:1059800017FC1E9841F6A061C2F20001219181ED41
:10599000000A006808F030F91C9A1D9B41EC100BBE
:1059A00051EC100B08F03AF841EC100B51EC100BD5
:1059B00007F084FD00EE100A07F052FB1E9841F636
:1059C0006C01C2F20001229181ED000A006808F02A
:1059D00013F91F9A209B41EC100B51EC100B07F0B0
:1059E0009FFD41EC100B51EC100B07F067FD00EE32
:1059F000100A07F0DDFB1E9841F69C61C2F200011F
:105A0000239181ED000A006808F0F6F81F9A209BA8
:105A100041EC100B51EC100B07F082FD41EC100B28
:105A200051EC100B07F04AFD00EE100A07F018FBCE
:105A3000DDF884C0229B239ADDF890E041F66800EF
:105A4000C2F2000080ED000A41F64C06C2F20006E8
:105A500096ED001AB7EE000A8DED250A31EE001A18
:105A60001FED6D2A8DED262A21EE021A1FED6F3AE9
:105A700031EE031ABDEEC11A11EE105A40F2B00118
:105A8000C2F200012791A1F8565041F64405C2F236
:105A9000000595ED001A31EE001A21EE021A1FEDF5
:105AA0007A3A31EE031ABDEEC11A11EE107AA1F85E
:105AB000647096ED001A30EE411A21EE021A1FEDC5
:105AC000816A31EE061ABDEEC11A11EE107A0F8608
:105AD00095ED001A30EE411A21EE021A1FED885A98
