:020000040800F2
:10000000704E00204D030008B58A000811840008D6
:10001000B18A0008FD190008C99600080000000018
:10002000000000000000000000000000298B000814
:10003000C535000800000000258B0008818B0008F2
:1000400067030008670300086703000867030008E8
:1000500067030008670300086703000867030008D8
:10006000670300086703000867030008BD33000842
:10007000CD33000867030008DD330008670300087C
:1000800067030008670300086703000867030008A8
:10009000011A0008670300086703000867030008E7
:1000A0006703000867030008670300086703000888
:1000B0009D8B0008AD8B00086703000867030008EC
:1000C0006703000867030008670300086703000868
:1000D000670300088D960008670300089D960008D6
:1000E0006703000867030008670300086703000848
:1000F000DD8B00086703000867030008ED33000884
:100100006703000867030008BD8B00086703000849
:1001100067030008A18E000867030008CD8B000864
:1001200067030008FD3300080D340008670300086A
:1001300067030008000000000000000067030008DB
:1001400067030008111A0008670300086703000826
:1001500067030008670300081D340008B99600080B
:1001600067030008670300086703000867030008C7
:10017000670300086703000800000000000000009B
:10018000670300086703000800F002F800F0CEF8EB
:1001900014A696E8000CB244B344DA4501D100F04D
:1001A000C5F8BAE80F000FA696E83000A5EB0405E5
:1001B00004EB0607AAEB0704A7F101074FEA1515A0
:1001C0004FEA3414A4F10104AC4201D300F0AEF8BC
:1001D00013F0010F18BFFB1A43F0010300F001F800
:1001E000DBE718473C0E01005C0E01000A444FF0AB
:1001F000000C10F8013B13F0070408BF10F8014B86
:100200001D1108BF10F8015B641E05D010F8016BCA
:10021000641E01F8016BF9D113F0080F1EBF10F82E
:10022000014BAD1C0C1B09D16D1E58BF01F801CB51
:10023000FAD505E014F8016B01F8016B6D1EF9D5D4
:100240009142D6D37047000070470000002300247D
:1002500000250026103A28BF78C1FBD8520728BFD6
:1002600030C148BF0B6070476E2900F04183702990
:1002700000F08384662910F0A684652910F0A38419
:10028000672910F0A084612910F09F8403681B0A7D
:1002900028BF41F08001692900F0EE82642900F056
:1002A000EB82752900F0E8826F2900F0118478292B
:1002B00000F04F84E92900F0AB83E42900F0A88323
:1002C000F52900F0A583EF2900F00E84F82900F04D
:1002D0004E840368DB0928BF41F08001632901F0E7
:1002E000A981732901F0AE81E32901F0B981F329D5
:1002F00001F0BE81002070471FB510F052FC9DE850
:10030000030000F02DFD00F00FFD0400002000218F
:100310000FF0E2FF401C6060002000210FF0F2FFB0
:10032000E06000F0C3F91FBD10B510BD01F0C8F9C1
:100330001146FFF7E1FF0FF0B3F801F0B3FA03B491
:10034000FFF7F2FF03BC01F0BDFA00000948804747
:1003500009480047FEE7FEE7FEE7FEE7FEE7FEE7A7
:10036000FEE7FEE7FEE7FEE704480549054A064BBF
:1003700070470000898B000889010008701E00206A
:10038000704E0020702E0020702E002053EA020CC8
:1003900000F069802DE9F04B4FF00006002B1FBFE5
:1003A000B3FA83F503FA05F424FA05F65E4012BFAA
:1003B0001643B2FA82F502FA05F4C5F120051EBF14
:1003C00022FA05FC44EA0C04203556EA044C4FEAB4
:1003D000144418BF641C4FF000084FF0000990420D
:1003E00071EB030C39D3002919BFB1FA81F701FA77
:1003F00007F6B0FA80F700FA07F6C7F120071EBF2C
:1004000020FA07FC46EA0C062037B6FBF4FCA7EB03
:100410000507103F07F01F0BCBF120062CFA06F65C
:100420000CFA0BFB44BFB3460026202FA4BF5E4648
:100430004FF0000B5BEA060C08BF4FF0010B19EB05
:100440000B0948EB0608ABFB027C06FB02CC0BFB5E
:1004500003CCC01B71EB0C01C1E70B4602464146C1
:100460004846BDE8F08B13B5084318BF4FF0FF3086
:100470000146AFF30080BDE81C4070470FB41CB5C7
:10048000084B06AA7B4469460090059800F049FA9B
:1004900004460020694600F057FA20461CBC5DF86F
:1004A00014FB0000C104000010B5431C02E010F86A
:1004B000011B71B18107FAD14FF0013202C88C1AC9
:1004C0008C4314EAC211F9D0C01A0A0603D0C01E28
:1004D00010BDC01A10BD0A0401D0801E10BD090253
:1004E000FCD0401E10BD032A40F2308010F0030CF7
:1004F00000F0158011F8013BBCF1020F624498BF77
:1005000011F801CB00F8013B38BF11F8013BA2F113
:10051000040298BF00F801CB38BF00F8013B11F08E
:10052000030300F02580083AC0F0088051F8043B2E
:10053000083A51F804CBA0E80810F5E7121D5CBF9B
:1005400051F8043B40F8043BAFF30080D20724BFCE
:1005500011F8013B11F801CB48BF11F8012B24BF62
:1005600000F8013B00F801CB48BF00F8012B7047B1
:1005700010B5203AC0F00B80B1E81850A0E8185030
:10058000B1E81850A0E81850203ABFF4F5AF5FEA80
:10059000027C24BFB1E81850A0E8185044BF18C925
:1005A00018C0BDE810405FEA827C24BF51F8043BCC
:1005B00040F8043B08BF7047D20728BF31F8023B20
:1005C00048BF11F8012B28BF20F8023B48BF00F8B4
:1005D000012B70474FF0000200B513469446964633
:1005E000203922BFA0E80C50A0E80C50B1F1200146
:1005F000BFF4F7AF090728BFA0E80C5048BF0CC0F4
:100600005DF804EB890028BF40F8042B08BF704751
:1006100048BF20F8022B11F0804F18BF00F8012BC3
:10062000704700000000000030B44FF0013C50F86B
:10063000042B51F8043BCCFA52F4D51A20D1FCB962
:1006400050F8042B51F8043BCCFA52F4D51A17D1C8
:10065000B4B950F8042B51F8043BCCFA52F4D51A33
:100660000ED16CB950F8042B51F8043BCCFA52F47B
:10067000D51A05D1002CDAD030BC4FF000007047FD
:1006800029BAB1FA81F111F01801D1F120008440AA
:10069000F2D1CA40CB4012F0FF0213F0FF0330BC8E
:1006A000D01A7047704770477047000008487CB503
:1006B0007844009007487844009C0546019004E087
:1006C0002046016808448047241DAC42F8D17CBD17
:1006D000B80A0100C20A010010B500F025FB001D98
:1006E00010BD00BFF5FB000000487047C8010020A6
:1006F00070B5064600F014FB056806F10B0020F00B
:100700000704B4429CBF002070BD2B466A68BAB192
:100710001068A04210D304F1080188423CBF506821
:10072000586007D35168101941601168091B0160B6
:1007300058601460101D70BD13465268002AE7D13E
:100740002146284600F0F8FA0028DED170BD70B5C9
:100750000446051F00F0E4FA0068002C14BF44684A
:1007600070BD002C18BFAC423CBF20466468F8D373
:1007700001680A18AA4218BF456003D12A680546D5
:100780001144016028684119A1421CBF6C6070BD12
:100790006168696021680844286070BD10B5FFF782
:1007A000A3FF006810BD10B50446FFF79DFF04606D
:1007B00010BD70B5044685690068C10601D53026B4
:1007C00000E02026C00707D070BDD4E901213046E3
:1007D0009047206A401C20626D1EF6D570BD70B532
:1007E000044685690078C00707D170BDD4E90121AE
:1007F00020209047206A401C20626D1EF6D570BDF7
:1008000009684A0501D540B27047C905FCD500B258
:10081000704709684A0501D5C0B27047C905FCD5C3
:1008200080B2704770B50C460546012A05D028787D
:10083000800600D5EA69002302E0012305E05B1C85
:10084000934202D2E05C0028F9D1A869E618C01AE8
:10085000A861286A184428622846FFF7AAFF04E026
:10086000D5E9012114F8010B9047B442F8D328468A
:10087000FFF7B5FF70BD00002DE9F04106460024EA
:1008800010687529314616A510D0FFF7B9FF00286A
:1008900002DA404213A507E031688A0701D512A5A4
:1008A00002E0490704D511A5012401E0FFF7B1FFDB
:1008B00000210A2206F1240709E0B0FBF2FCB0FB9C
:1008C000F2F302FB1C00303078541846491C002813
:1008D000F3D123462A463046BDE8F04100F0BABACB
:1008E000000000002D0000002B0000002000000090
:1008F00011680268006A530501D508700AE0D30543
:1009000001D5088006E0130603D5C217C1E900022D
:1009100000E008600120704701694A1C0261087804
:10092000704700B58FB0CDE901310021059105492F
:100930007944CDE903101146684600F029F90FB05B
:1009400000BD0000E5FFFFFF0A6802F8010B0A6026
:10095000704700002DE9FF5F15468A460446DFF820
:10096000AC80F8440027D8E900103E46CDE90010DD
:1009700010E03AF816106A4602A800F07DFE411C0D
:1009800007D02178890603D5E269391891420DD83C
:100990000744761C2078800602D5E069B84205DD60
:1009A000AE42E6DB3AF816000028E2D1A069C01B8F
:1009B000A0612046FFF7FDFED8E90010CDE9001048
:1009C000002017E03AF818106A4602A800F054FE1A
:1009D000B0F1FF3F81460BD000250DF1080B05E07B
:1009E000D4E901211BF8050090476D1C4D45F7D354
:1009F00008F10100B0428046E4DB206A38442062FE
:100A00002046FFF7ECFEBDE8FF9F00006A020100F0
:100A10002DE9F0418046D21D22F007020025D2E9DF
:100A20000002F52915A614D0011E72F1000106DAA4
:100A30000023D0EB030063EB020211A608E0D8F814
:100A400000108B0701D50FA602E0490701D50EA6BD
:100A500001251146002408F1240704E000F0B5F94F
:100A600030323A55641C50EA0102F7D12B46324627
:100A700021464046BDE8F04100F0ECB9000000001E
:100A80002D0000002B0000002000000030B40021E9
:100A900000F1240408E002F00705D208303542EAEC
:100AA0004372DB086554491C52EA0305F3D104681C
:100AB000002310A2250708D504F020040C4304D01D
:100AC000C46901230CA2641EC46130BC00F0C2B929
:100AD00010B5044621461068FFF79BFE02462046EB
:100AE000BDE810400023D1E7D21D22F00701D1E973
:100AF0000023CBE70000000030000000F0B40D46FA
:100B00000188090502D5214C7C4402E01F4C7C443D
:100B10000E34002100F1240608E002F00F0712094C
:100B2000E75D42EA03721B097754491C52EA030746
:100B3000F3D102780023120704D5702D06D009B135
:100B4000022311342246F0BC00F084B90123103492
:100B5000F8E770B504460D4621461068FFF759FEC8
:100B6000024629462046BDE870400023C6E7D21D54
:100B700022F00703D3E90023C0E70368126843F0BB
:100B8000200303600823C3610023B7E7CC00010002
:100B90002DE9F05F894604464FF0000ADFF874B192
:100BA000FB44C0F820A02046E1688847002874D0A4
:100BB000252806D0D4E901219047206A401C2062F4
:100BC000F1E700265F462046E16888472028054671
:100BD00007DB312D05D2781910F8200C08B1064337
:100BE000F1E7B00701D526F00406C4F81CA00027E1
:100BF000C4F818A02A2D09D028460FF065FB38B399
:100C000004EB8708303DC8F8185019E059F8041B68
:100C1000204604EB87029161E1688847012F054671
:100C200018D1E069002820DA26F020061DE0D8F867
:100C3000180000EB800005EB40003038C8F81800C1
:100C40002046E168884705460FF03EFB0028EED1BC
:100C5000012F0AD02E2D08D12046E16888477F1C3D
:100C60000546022F46F02006C4DBA069002803DAFF
:100C7000404246F00106A061F00701D026F01006C0
:100C80006C2D0BD0682D09D04C2D39D06A2D35D064
:100C9000742D35D07A2D33D016E038E0E1682F4638
:100CA00020468847B842054609D16C2F26D04FF41C
:100CB0008060E168064320468847054604E06C2FC3
:100CC0001AD04FF4807006430DB3A5F141001928E6
:100CD00002D8203546F400664A462946204626605A
:100CE0004E46FFF7C1FA80B101280BD0F61D26F061
:100CF000070000F1080956E74020E4E78020D8E724
:100D00000020D6E706F104094DE7284652E7206A9D
:100D1000BDE8F09F5C00010000487047C80100205A
:100D200000487047D001002000487047E8010020CB
:100D3000704770477047704738B504460A46002030
:100D40006946AFF30080002808BF38BD024600990D
:100D5000204600F0DAFC012038BD012000F0ABBDD8
:100D6000F8B5AFF30080054600200C460C2000BF0C
:100D70000646A819A0420DD9324669460020AFF3B5
:100D80000080070008BF00F096FD0098A04218BF41
:100D90000546C419FFF7C4FF05600746F01D20F0A3
:100DA00007004619284600F00AF8B44208BFF8BD0B
:100DB000A21B31463868BDE8F84000F0A6BC00210F
:100DC0000160416070470C20704730B5B0F10A02F5
:100DD00071F100034FEA900E4EEA817EB0EB0E00F7
:100DE00061EB91014FEA101E4EEA017E10EB0E00FE
:100DF00041EB11114FEA102E4EEA016E10EB0E007E
:100E000041EB11214FEA104E4EEA014E10EB0E005D
:100E100041EB1141401841F100014FEAD00040EA96
:100E200041704FEAD1014FEA810444EA907410EB1B
:100E3000800544EB01046D1944EB0404521BA341EB
:100E40004FF0000348BF0A3200D530BD401C41F1CD
:100E5000000130BD2DE9F0470D4699469246044603
:100E600000F124080168880604D5E06921F010012A
:100E7000216000E00120A84201DD471B00E00027BF
:100E8000A1697A1902EB0900081AA0612078C0064E
:100E900002D42046FFF78DFC002608E0D4E90121AA
:100EA0001AF806009047206A401C761C20624E45C6
:100EB000F4DB2078C0060AD52046FFF77AFC06E06E
:100EC000D4E9012130209047206A401C2062381E5E
:100ED000A7F10107F4DC07E0D4E9012118F80500C7
:100EE0009047206A401C2062281EA5F10105F3DC12
:100EF0002046FFF774FC2078000602D50220BDE8EA
:100F0000F0870120FBE72DE9FF4F0C461E464FF00E
:100F1000FF378BB0D2E90001DDF860800A908A4685
:100F2000C1F30A5505B93D46002108464FF00000BF
:100F3000BAF1000F00F4400005DA00EB80004FF436
:100F4000400101EA50004FEA9059B9F1010F00DD6C
:100F5000B9460A9850EA4A000ED044F61050A5F25D
:100F6000FF3545432F14B8F1000F1ED07542291EDE
:100F70001EDDC9F100021CE0B8F1010F4FF00000C6
:100F800001D0302103E0F24305E02154401CB0427F
:100F9000FBDB30460022002121540B99C1F8088068
:100FA000C1E900200FB0BDE8F08FBD1B6D1CDEE76E
:100FB0004A4600DA694206A800F002FC06AB93E854
:100FC000070003AB83E8070050460A990EF05AFB6E
:100FD0008DE80700A0F500501F3800900398002D01
:100FE0000ADD42F21F014A460844002303A9039088
:100FF00068460EF0C3FD09E0A0F500504A461F38D0
:10100000002303A9039068460EF0CDFD8DE807008C
:101010000004000C03D04FF0FF30410800E0104600
:10102000B8F1000F03D00022009215461EE0751E95
:1010300005D4FFF7CAFE303262556D1EF9D5B346AE
:101040000122084302D000227F1C04E020783028CF
:1010500001D100227F1E002A099784D01DE0112DA6
:1010600007DAFFF7B2FE303262556D1C50EA01021A
:10107000F5D1084302D00098C8B10EE00021681EE7
:1010800005E0235C625C63542254401E491C81428B
:10109000F7DBAB46A81B401E0990002004F80B00AC
:1010A0000B98099AC0F80880C0E9002B7AE711264E
:1010B0004FF0000857E72DE9F04F88460446D21D4F
:1010C00022F0070191B0D1E90001CDE90A010EF04B
:1010D000A1FE02460B98C00F01D02D2007E020682A
:1010E000810701D52B2002E0202101EAC000032A5C
:1010F000099001D0072A05DB03464146204600F04F
:101100001FFB0BE12078800601D5E06900E0062096
:10111000B8F1650F814606D0B8F1660F18D0B8F166
:10112000670F70D131E00020B9F1110F009001DBA1
:10113000112301E009F101030AAA01A90CA8FFF794
:10114000E2FEDDE90C70002609F10105834647E067
:1011500001204B4600904FF000470AAA01A90CA8B5
:10116000FFF7D1FEDDE90DB00C995D46002610B900
:1011700009F101000D18B9EB050003D4C0F1FF36E9
:1011800009F10105A5EB09002BE0B9F1010F01DA26
:101190004FF001090020B9F1110F0090484601DD20
:1011A000112300E003460AAA01A90CA8FFF7ABFE31
:1011B000DDE90C704D4600268346207800070AD4EE
:1011C000AB4500DA5D4601A8012D04DD411911F897
:1011D000011C302907D04F4502DA17F1040F04DA59
:1011E000012082460FE06D1EEEE7002F02DCED1BB2
:1011F0003E4403E0781CA84200DD7D1CB81B00F1D2
:10120000010A4FF000472078000703D4AA4501DB0C
:101210004FF0FF3A0021B7F1004F0DF143088DF870
:10122000431024D002202B23002F01DA7F422D23EC
:101230000A21021EA0F1010000DC5FB197FBF1FC66
:1012400097FBF1F201FB1C7C17460CF1300C08F8FF
:1012500001CDEEE7A8F1010003702188090501D551
:10126000452100E06521A0F1010800F8011C099862
:101270000FA9A1EB0807FF1D00B10120411901EBE7
:10128000EA70A1693844081A401EA0612078C0069F
:1012900002D42046FFF78DFA099828B1D4E901213C
:1012A0009047206A401C20622078C00622D5204644
:1012B000FFF77FFA1EE0002E04DBB34502DD01A834
:1012C000805D00E03020D4E901219047206A401C75
:1012D0002062761CAAF101005FEA000A0AD1FFF73A
:1012E00023FDC0680168405CD4E901219047206A71
:1012F000401C2062281EA5F10105DCDC07E0D4E9D2
:10130000012118F8010B9047206A401C2062381E0A
:10131000A7F10107F3DC2046FFF761FA032011B0C3
:1013200041E600002DE9F04F04460D46D21D22F0A3
:10133000070089B0D0E90097484639460EF06AFDAB
:101340000246F80F01D02D2307E02068810701D560
:101350002B2302E0202101EAC0038DF820300BB1DD
:10136000012000E00020032A824601D0072A04DB86
:101370002946204600F0E4F93FE12078800601D4B8
:101380000D2500E0E569C7F30A560D2D49DA002165
:101390004FEA175B08464FF00000002F00F44000B2
:1013A00007DA00EB80004FF4400100EBD07001EA57
:1013B00060008115012901DD4FF0FF3100224FEA65
:1013C000850CBCF1180F06D31346ACF118004FF092
:1013D0008052C24003E04FF4801323FA0CF30CF167
:1013E0000C0CBCF1200F04D3ACF1200C09FA0CF06A
:1013F00001E007FA0CF000294FF0004801DD18B9B0
:101400000FE00ED140450CD319EB02095F4121B921
:10141000404502D19F4329EA0209BBEB175F00D088
:10142000761C2088000502D57B48784402E07A4883
:101430007844193808AA302302F80A30037C0AF1EC
:101440000101002E0AF1020A53546A4602DC4FF0F1
:10145000300101E04FF031014FF001088DF800102C
:1014600002D0A6F2FF3603E059EA470100D06B4EE6
:10147000002D02DC2178090704D54FF002082E2147
:101480008DF80110C44600210BE0C7F303433F0170
:10149000C35C491C6D1E02F80830052908F10108DB
:1014A00001DA002DF1DC00210CE000EB1973491C7E
:1014B0001B786D1E082902F808304FEA091908F157
:1014C000010801DA002DF0DC21688B0602D516E058
:1014D000A8F10108E04505DD02EB080313F8013C23
:1014E000302BF5D0B8F1000F09DD02EB080313F83B
:1014F000013C2E2B03D1090701D4A8F10108002DCE
:1015000005DD3E2102F808106D1E08F10108407C3F
:10151000002E02F8080008F1010804DA2D207642B6
:1015200002F8080002E02B2002F808000A214FF41C
:101530007A70864208F101080BDB96FBF0F330333A
:1015400002F8083096FBF0F308F1010800FB13667F
:1015500001E0642E0CDB642096FBF0F3303302F8DC
:10156000083096FBF0F308F1010800FB136601E078
:101570000A2E06DB96FBF1F0303002F8080008F185
:10158000010896FBF1F001FB1060303002F8080012
:10159000A16908F1010808EB050202EB0A00081A2C
:1015A000A0612078C00602D42046FFF702F9216A24
:1015B00008AE01EB0A00206204E0D4E9012116F82C
:1015C000010B9047BAF1010AF7D22078C00602D584
:1015D0002046FFF7EEF86E4609E016F8010B3E28AC
:1015E0000FD0D4E901219047206A401C2062B8F155
:1015F0000108F2D22046FFF7F2F809B00320BDE857
:10160000F08F206A2844206203E0D4E901213020D1
:1016100090476D1EEBD3F8E719F8000002FCFFFFBE
:1016200010B5436913B1AFF3008001E0FFF7FAF89A
:10163000012010BD127800F124010A7000224A70C6
:101640000122EDE711684FF0FF32E9E710B5436979
:1016500013B1AFF3008001E0FFF77CF9012010BD6A
:10166000128800F1240182840022C2840122EDE765
:1016700011684FF0FF32E9E72DE9F04116460C46BC
:101680000546FFF729F8036893F80101012807D000
:10169000FF2C12D8185D80B101202C70BDE8F081BC
:1016A000D3F807013246214603F20713C71828462C
:1016B000BC46BDE8F041002360474FF0FF30EDE746
:1016C0007546FFF729FBAE4605006946534620F0F4
:1016D0000700854618B020B5FEF746FEBDE820405D
:1016E0004FF000064FF000074FF000084FF0000BDE
:1016F000AC46ACE8C009ACE8C009ACE8C009ACE84D
:10170000C00921F007018D467047034640688C46AA
:10171000002818BF88423CBF03464068F8D31868C9
:101720001844884207D00CF1030020F00700001D88
:10173000411A521A0146081D0A60FFF708B8000056
:101740002DE9F0411F46044603260168072A01F4EB
:10175000006004DB08B116A505E016A503E008B19A
:1017600015A500E015A521F010002060A069C01E9D
:10177000A0610FB1401EA0612046FFF71AF84FB1DB
:10178000D4E9012138469047206A401C2062C01CE1
:10179000206206E0206AFAE7D4E9012115F8010B7E
:1017A0009047761EF8D22046FFF719F8BDE8F08181
:1017B0004E414E006E616E00494E4600696E6600F5
:1017C0002DE9F047814616468AB0354878440DC861
:1017D0008DE80D0032487844801C03AC0DC884E8C5
:1017E0000D0041F69B300844372190FBF1F290FB4D
:1017F000F1F5A5F1800501FB12041B3C02D5644202
:10180000012000E00020DFF898A080460027FA447D
:10181000AAF1BE0A0EE0E0070AD03246684607EB9E
:10182000470101230AEB81010EF0BDF98DE80700A5
:1018300064107F1C002CEED1194F7F44AE3F19E09D
:10184000E80715D007EB04100DF1180A90E80E0018
:101850008AE80E00C068F04201D19819089032461B
:10186000012306A903A80EF09EF903AB83E8070045
:101870006D10641C002DE3D14FF001033246694620
:10188000B8F1000F03A802D00EF078F901E00EF0D5
:101890008AF9C9E90001C9F808200AB0BDE8F08753
:1018A00008F5000010B50446AFF300802046BDE8FF
:1018B0001040FEF744BD10B500F010F8BDE8104030
:1018C00000F007B801491820ABBEFEE72600020071
:1018D0007047002801D0FFF7F5BF704710B5012809
:1018E00005D0002103A000F021F8012010BD09A1BE
:1018F000F8E7000053494752544D454D3A204F7583
:1019000074206F662068656170206D656D6F7279F7
:10191000000000003A2048656170206D656D6F72AF
:101920007920636F727275707465640070B50546D6
:101930000C460A2000E06D1C00F011F835B1287843
:101940000028F8D102E0641C00F009F814B12078F6
:101950000028F8D1BDE870400A20AFF3008008B538
:1019600069468DF800000320ABBE08BD80B584B089
:10197000039002910020ADF80600039820B1FFE724
:101980000298022801D8FFE715E00398029902396E
:1019900001F01EFEADF80600BDF80600039A02999C
:1019A000114401F8020C9DF80700039A02991144B2
:1019B00001F8010CFFE704B080BD000080B584B0E1
:1019C0000390029100208DF80700039820B1FFE7F3
:1019D0000298022801D8FFE70EE003980299013926
:1019E00001F02CFE8DF807009DF80700039A02997C
:1019F000114401F8010CFFE704B080BDFFE7FEE7EA
:101A000080B541F22440C2F2000002F029F980BD05
:101A100080B541F24C40C2F2000002F021F980BDD5
:101A200070B58AB09C4696460C46054612981198A9
:101A300010990F9A0E9B09958DF823408DF822E09E
:101A40008DF821C0ADF81E30ADF81C20ADF81A108D
:101A5000ADF818001298FEF727FDADF8160040F219
:101A60004450C2F200000390A5210170332141804F
:101A700040F20131C1804FF48871A0F8921090F8C3
:101A80004210A0F8941090F8421001F58071A0F86F
:101A90009610099980F81C120999090A80F81D12FC
:101AA000BDF8261080F81E129DF8232090F81F1212
:101AB00002F0070201F0F801114480F81F1290F8BB
:101AC0001F1241F0380180F81F129DF8222090F873
:101AD000201202F00F0201F0F001114480F82012F0
:101AE0009DF8212090F8201201F00F0141EA021127
:101AF00080F82012BDF81E3090F82322B0F8211291
:101B00006FF35F2301F47E41194480F82322A0F88B
:101B10002112BDF8162090F82332B0F8211241EAC4
:101B200003416FF35F2240F2FF13C0F2FC03194040
:101B300041EA4221A0F82112090C80F82312BDF8D5
:101B40001C20D0F8241262F30901C0F82412BDF859
:101B50001A20D0F824126FF3DF226FF3942141EAA8
:101B60008221C0F82412BDF81820D0F824126FF397
:101B70005F5141EA4251C0F8241200210191A0F8BE
:101B80004812C0F84412C0F84012C0F83C12C0F825
:101B90003812C0F83412C0F83012C0F82C1200F518
:101BA0000B7002901299BDF81620FEF79CFC039B67
:101BB000197840F66C40C2F2000004900170598818
:101BC000A0F8011019794A1C1A71C1700521FFF79C
:101BD000F5FE019A0299039B0498B3F806C0A0F899
:101BE00005C0B3F892C0A0F807C0B3F894C0A0F83D
:101BF00009C0B3F896C0A0F80BC093F81CC280F8D7
:101C00000DC093F81DC280F80EC093F81EC280F874
:101C10000FC093F81F5293F820E293F8234205F087
:101C2000070CC5F3C2054CEAC50C4CEA8E1CB3F890
:101C300021E24EEA0444A6466FF35F2E4CEA8E3C46
:101C400040F2000ECFF6807E0EEA843EF444C0F8E7
:101C500010C0D3F82432436182611C301E22FEF78B
:101C600042FC0399049849880931FFF77FFE0499E3
:101C700041F66810C2F200003C224FF6FF7306F0F6
:101C80002BFB0AB070BD0000B0B588B0DDF850C0C5
:101C9000DDF84CC0DDF848C0DDF844C0DDF840C0D8
:101CA000DDF83CC0DDF838C0DDF834C0DDF830C008
:101CB00007908DF81B1005928DF8133040F24453B5
:101CC000C2F200030293A521197040F66C40C2F2E3
:101CD00000000390017051215980A0F8011019797A
:101CE0004A1C1A71C1700521FFF768FE029A039918
:101CF00040F20130D080A1F8050040F20310A2F8B4
:101D00009200A1F8070092F84200A2F89400A1F80E
:101D1000090092F8420000F58070A2F89600A1F840
:101D20000B0000208DF81200FFE79DF81200042838
:101D300000F32781FFE707999DF8120011F82010A2
:101D4000020140F24450C2F2000000F5AE70019072
:101D500081549DF81220C2EB021340F66C42C2F28D
:101D600000021344597307999DF8123001EB830167
:101D7000497800EB031359709DF81230C3EB03133D
:101D80001344997307999DF8123001EB8301897808
:101D900000EB031399709DF81230C3EB0313134447
:101DA000D9739DF81BC09DF8121000EB0113D97870
:101DB0000CF0070C01F0F8016144D970059B9DF807
:101DC000121013F801C000EB0113D9780CF0070CC6
:101DD00001F0C70141EACC01D9709DF813C09DF80C
:101DE000121000EB011319790CF00F0C01F0F00147
:101DF000614419710C9B9DF8121013F801C000EB9F
:101E00000113197901F00F0141EA0C1119710D9BB1
:101E10009DF8121033F811E000EB011333F8051FA1
:101E200093F802C06FF35F2E01F47E41714483F892
:101E300002C019800E9B9DF8121033F811C000EB00
:101E4000011333F8051F93F802E041EA0E416FF3E6
:101E50005F2C40F2FF1EC0F2FC0E01EA0E0141EAC7
:101E60004C211980090C99700F9B9DF8121033F8C2
:101E700011C000EB011399686CF309019960109B84
:101E80009DF8121033F811C000EB011399686FF33D
:101E9000DF2C6FF3942141EA8C219960119B9DF80E
:101EA000121033F811C000EB011399686FF35F5102
:101EB00041EA4C519960129B9DF8121033F811C001
:101EC00000EB0113D9686CF30901D960139B9DF8ED
:101ED000121033F811C000EB0113D9686FF3DF2C37
:101EE0006FF3942141EA8C21D960149B9DF8121064
:101EF00033F811C000EB0113D9686FF35F5141EA69
:101F00004C51D9609DF8123000EB031C9CF8035033
:101F10009CF804409CF807E005F00701C5F3C205F2
:101F200041EAC50141EA8411BCF805C04CEA0E4EF5
:101F3000F4466FF35F2C41EA8C3140F2000CCFF68F
:101F4000807C0CEA8E3C6144C3EB0313134419619B
:101F50009DF8123000EB03118968C3EB031313449F
:101F600059619DF8121000EB0110C068C1EB01111E
:101F700011448861FFE79DF8120001308DF81200CE
:101F8000D3E640F24450C2F20000408800F109015B
:101F900040F66C40C2F200000090FFF7E7FC0099A9
:101FA00041F66810C2F200005A224FF6FF7306F0A5
:101FB00093F908B0B0BD00002DE9F0418AB01C468D
:101FC00015460E46074615981499139A129BDDF88C
:101FD00044C0DDF840E009978DF823608DF8225069
:101FE0008DF821408DF820E0ADF81EC0ADF81C3012
:101FF000ADF81A20ADF81810ADF816008DED040AF2
:1020000040F24453C2F200030293A5201870152039
:10201000588040F20130D88040F20110A3F89200BD
:1020200093F84200A3F8940093F8420000F5807002
:10203000A3F89600099883F82C010998000A83F800
:102040002D01BDF8260083F82E019DF8231093F88A
:102050002F0101F0070100F0F800084483F82F0178
:102060009DF8221093F82F0101F0070100F0C7003E
:1020700040EAC10083F82F019DF8211093F8300148
:1020800001F00F0100F0F000084483F830019DF8E2
:10209000201093F8300100F00F0040EA011083F89F
:1020A0003001BDF81E2093F83311B3F831016FF3FE
:1020B0005F2200F47E40104483F83311A3F831010D
:1020C000BDF81C1093F83321B3F8310140EA024007
:1020D0006FF35F2140F2FF12C0F2FC02104040EAB1
:1020E0004120A3F83101000C83F83301BDF81A1028
:1020F000D3F8340161F30900C3F83401BDF81810B6
:10210000D3F834016FF3DF216FF3942040EA81208C
:10211000C3F83401BDF81610D3F834016FF35F50E3
:1021200040EA4150C3F83401197840F66C40C2F2DD
:102130000000039001705988A0F8011019794A1C19
:102140001A71C1700521FFF739FC02980399C28802
:10215000A1F80520B0F89220A1F80720B0F894204B
:10216000A1F80920B0F89620A1F80B2090F82C21B6
:102170004A7390F82D218A7390F82E21CA7390F833
:102180002FE190F8303190F833C10EF00702CEF312
:10219000C20E42EACE0242EA8312B0F8313143EA7B
:1021A0000C4C63466FF35F2342EA83320023CFF681
:1021B000807303EA8C331A440A61D0F83401486111
:1021C0009DF8220006280CD1FFE79DED040ABDEE24
:1021D000C00A10EE100A40F66C41C2F2000188619C
:1021E0000FE09DED040A9FED141A20EE010ABDEEEA
:1021F000C00A10EE100A40F66C41C2F2000188617C
:10220000FFE740F24450C2F20000408800F10901AB
:1022100040F66C40C2F200000190FFF7A7FB019965
:1022200041F66810C2F200001E224FF6FF7306F05E
:1022300053F80AB0BDE8F08100007A44B0B588B028
:10224000DDF850C0DDF84CC0DDF848C0DDF844C012
:10225000DDF840C0DDF83CC0DDF838C0DDF834C042
:10226000DDF830C007908DF81B1005928DF8133003
:1022700040F24453C2F200030293A521197040F6C4
:102280006C40C2F20000039001706F215980A0F8E9
:10229000011019794A1C1A71C1700521FFF78EFBD4
:1022A000029A039940F20130D080A1F805004FF462
:1022B0008270A2F89200A1F8070092F84200A2F8FA
:1022C0009400A1F8090092F8420000F58070A2F88D
:1022D0009600A1F80B0000208DF81200FFE79DF892
:1022E0001200062800F32781FFE707999DF81200E6
:1022F00011F82010020140F24450C2F2000000F533
:10230000D670019081549DF81220C2EB021340F662
:102310006C42C2F200021344597307999DF81230BF
:1023200001EB8301497800EB031359709DF81230DB
:10233000C3EB03131344997307999DF8123001EB13
:102340008301897800EB031399709DF81230C3EB79
:1023500003131344D9739DF81BC09DF8121000EBB2
:102360000113D9780CF0070C01F0F8016144D97021
:10237000059B9DF8121013F801C000EB0113D978EA
:102380000CF0070C01F0C70141EACC01D9709DF8AF
:1023900013C09DF8121000EB011319790CF00F0C0B
:1023A00001F0F001614419710C9B9DF8121013F8B3
:1023B00001C000EB0113197901F00F0141EA0C1182
:1023C00019710D9B9DF8121033F811E000EB011309
:1023D00033F8051F93F802C06FF35F2E01F47E41BE
:1023E000714483F802C019800E9B9DF8121033F8D7
:1023F00011C000EB011333F8051F93F802E041EA26
:102400000E416FF35F2C40F2FF1EC0F2FC0E01EA9A
:102410000E0141EA4C211980090C99700F9B9DF81F
:10242000121033F811C000EB011399686CF3090125
:102430009960109B9DF8121033F811C000EB011346
:1024400099686FF3DF2C6FF3942141EA8C21996036
:10245000119B9DF8121033F811C000EB011399681D
:102460006FF35F5141EA4C519960129B9DF8121035
:1024700033F811C000EB0113D9686CF30901D9607E
:10248000139B9DF8121033F811C000EB0113D968AB
:102490006FF3DF2C6FF3942141EA8C21D960149BF8
:1024A0009DF8121033F811C000EB0113D9686FF3D7
:1024B0005F5141EA4C51D9609DF8123000EB031C8A
:1024C0009CF803509CF804409CF807E005F00701D5
:1024D000C5F3C20541EAC50141EA8411BCF805C053
:1024E0004CEA0E4EF4466FF35F2C41EA8C3140F219
:1024F000000CCFF6807C0CEA8E3C6144C3EB0313E6
:10250000134419619DF8123000EB03118968C3EB85
:102510000313134459619DF8121000EB0110C068B9
:10252000C1EB011111448861FFE79DF812000130F1
:102530008DF81200D3E640F24450C2F20000408809
:1025400000F1090140F66C40C2F200000090FFF774
:102550000DFA009941F66810C2F2000078224FF699
:10256000FF7305F0B9FE08B0B0BD000080B584B0BF
:102570000020ADF80E0040F66A41C2F200014FF4AF
:102580000070088040F66800C2F20000007838B1A0
:10259000FFE740F66801C2F200010020087006E083
:1025A00040F66801C2F2000101200870FFE700F068
:1025B000B1F8ADF80E0040F66800C2F200000090DD
:1025C000017840F66900C2F20000019000EB412062
:1025D000BDF80E10014440F66A40C2F200000290BD
:1025E0000088BDF80E20801A82B241F66810C2F24F
:1025F000000005F031FE009B0199029A187801EB6A
:1026000040201B78B3FA83F35B0901EB4321138865
:10261000BDF80E209B1A1944FDF765FF04B080BD7C
:1026200080B584B003900020029041F66810C2F299
:10263000000000680068C0F30010029002980028B3
:1026400052D0FFE7FFE70020009041F66810C2F289
:1026500000000168096800910068406800900098D7
:10266000FFE741F66810C2F20000016809680191B5
:1026700001684968019105F069F8039800684068AD
:1026800001900198C0F5007040F66A41C2F2000165
:10269000088040F66800C2F20000007838B1FFE719
:1026A00040F66801C2F200010020087006E040F622
:1026B0006801C2F2000101200870FFE740F66800DF
:1026C000C2F20000017840F66900C2F2000000EB9F
:1026D000412141F66810C2F200004FF4007205F08B
:1026E000BBFD00F017F8FFE704B080BD80B541F6F0
:1026F0006810C2F200000268D16841F01001D16098
:1027000040F66901C2F200014FF4007205F0A4FD29
:1027100080BD000080B58CB00020ADF82C0040F6E4
:102720006800C2F200000078B0FA80F0410940F67B
:102730006900C2F2000000EB41200A90FFE740F67A
:102740006A40C2F200000088BDF82C10401A02282E
:102750000CDCFFE740F66A40C2F200000088BDF8DA
:102760002C10401AADF82E0000F023BE0A98BDF8D8
:102770002C10405CA52840F00686FFE70A98BDF8BB
:102780002C10084401790891042100F057FF0146FC
:102790000898884240F0F785FFE70A98BDF82C10AA
:1027A0000844B0F8010040F24451C2F200014880F0
:1027B00040F66A40C2F200000088BDF82C20801A62
:1027C0004988093188420CDAFFE740F66A40C2F2D4
:1027D00000000088BDF82C10401AADF82E0000F063
:1027E000E8BD0A9840F24451C2F200014988BDF8A0
:1027F0002C2010440731425A079200F0E9FE0146AE
:102800000798884240F0B885FFE70A98BDF82C1079
:102810000844B0F8051040F24450C2F20000C180F4
:10282000C08801460691012800F0B380FFE70698B2
:10283000022800F0D580FFE70698032800F0DC802E
:10284000FFE70698042800F07581FFE7069840F23C
:102850000111884200F08481FFE70698B0F5817F7E
:1028600000F08A81FFE7069840F20311884200F0E9
:10287000A481FFE70698B0F5827F00F0B881FFE7FA
:10288000069840F20511884200F0C481FFE70698DF
:1028900040F20121884200F0C981FFE7069840F22A
:1028A0000221884200F03E82FFE7069840F20321B1
:1028B000884200F07F82FFE70698B0F5017F00F0C4
:1028C0009382FFE7069840F20521884200F0988243
:1028D000FFE7069840F20621884200F09D82FFE75C
:1028E000069840F20721884200F0D182FFE706985F
:1028F000B0F5027F00F0EC82FFE7069840F2092174
:10290000884200F00883FFE7069840F20A218842D7
:1029100000F01F83FFE7069840F20B21884200F089
:102920001584FFE70698B0F5037F00F06584FFE7A4
:10293000069840F20131884200F03283FFE70698A2
:1029400040F20231884200F08684FFE7069840F2A8
:102950000331884200F06F83FFE70698B0F5417FAE
:1029600000F09383FFE7069840F20531884200F0BB
:10297000C783FFE7069840F20631884200F0B7842B
:10298000FFE7069840F20731884200F0B18400F07A
:10299000E6BC0A99BDF82C000844C07900F00F028B
:1029A00040F24451C2F20001087A00F0F0001044F5
:1029B00008720A9ABDF82C001044C279087A02F015
:1029C000F00200F00F00104408720A9ABDF82C00C3
:1029D0000244107A527A40EA0220488100F0C0BCDA
:1029E0000A99BDF82C000844C07940F24451C2F263
:1029F0000001087300F0B4BC0A99BDF82C00014432
:102A0000C879097A40EA012040F24451C2F200013B
:102A10000591C8810A9ABDF82C000244507A927A36
:102A200040EA022008820A9ABDF82C000244D07ABB
:102A3000127B40EA022048820A9ABDF82C00024428
:102A4000507B927B40EA022088820A9ABDF82C00D3
:102A50000244D07B127C40EA0220C8820A9ABDF868
:102A60002C000244507C927C40EA022008830A9A9F
:102A7000BDF82C000244D07C127D40EA022048833D
:102A80000A9ABDF82C000244507D927D40EA022053
:102A900088830A9ABDF82C000244D07D127E40EA59
:102AA0000220C8830A9ABDF82C000244507E927E10
:102AB00040EA022008840A9ABDF82C000244D07E25
:102AC000127F40EA022048840A9ABDF82C00024492
:102AD000507F927F40EA022088840A9ABDF82C0039
:102AE0000244D07F92F8202040EA0220C8840A9A4B
:102AF000BDF82C00024492F8210092F8222040EA0E
:102B0000022008850A9ABDF82C00024492F823009E
:102B100092F8242040EA022048850A9ABDF82C0049
:102B2000024492F8250092F8262040EA0220888587
:102B300000F016BC0A99BDF82C000844C07940F298
:102B40004451C2F2000181F82E000A9ABDF82C000F
:102B50000244107A527A40EA0220088600F000BC53
:102B60000A99BDF82C000844D0F8070040F24451FF
:102B7000C2F200014863F3E30A99BDF82C0008444F
:102B8000C07940F24451C2F2000181F838000A9A3B
:102B9000BDF82C001044007A81F839000A9ABDF87B
:102BA0002C001044407A81F83A000A9ABDF82C00B3
:102BB0001044807A81F83B00D2E30A99BDF82C00DA
:102BC0000844C07940F24451C2F2000181F83C004F
:102BD0000A9ABDF82C001044007A81F83D000A9A48
:102BE000BDF82C001044407A81F83E00B8E30A9901
:102BF000BDF82C000844C07940F24451C2F20001F3
:102C000081F83F000A9ABDF82C001044007A81F840
:102C10004000A5E30A99BDF82C000844C07940F2B1
:102C20004451C2F2000181F8410099E30A99BDF8CC
:102C30002C000844C07940F24451C2F200010491D2
:102C400081F842000A9ABDF82C001044007A81F8FD
:102C500043000A9ABDF82C000244507A927A40EA66
:102C60000220A1F844000A9ABDF82C000244D07A50
:102C7000127B40EA0220A1F846000A9ABDF82C0017
:102C80000244507B927B40EA0220A1F848000A9A55
:102C9000BDF82C000244D07B127C40EA0220A1F84F
:102CA0004A000A9ABDF82C000244507C927C40EA0B
:102CB0000220A1F854000A9ABDF82C001044C07CF0
:102CC00000F0010291F8560000F0FE00104481F877
:102CD00056000A9ABDF82C001044C07C00F0020295
:102CE00091F8560000F0FD00104481F856000A9A51
:102CF000BDF82C001044C07C00F0040291F856008E
:102D000000F0FB00104481F856000CF08FFC44F2F8
:102D10004021C0F20F01084440F6B051C2F2000158
:102D200008601DE30A99BDF82C000144C879097AAE
:102D300040EA012040F24451C2F20001A1F85800DB
:102D40000A9ABDF82C000244507A927A40EA022096
:102D5000A1F85A000A9ABDF82C001044D0F80B00D4
:102D6000C8650A9ABDF82C000244D07B127C40EA68
:102D70000220A1F860000A9ABDF82C000244507CA1
:102D8000927C40EA0220A1F862000A9ABDF82C0069
:102D90000244D07C127D40EA0220A1F864000A9A25
:102DA000BDF82C000244507D927D40EA0220A1F83B
:102DB0006600D5E20A99BDF82C000844D0F8070057
:102DC00040F24451C2F2000188660A9ABDF82C0014
:102DD0001044D0F80B00C8660A9ABDF82C001044C5
:102DE000D0F80F000867BBE20A99BDF82C00084430
:102DF000C07940F24451C2F2000181F87400AFE2A0
:102E00000A99BDF82C000844C07940F24451C2F23E
:102E1000000181F87500A3E20A99BDF82C0008446E
:102E2000C07900F00F0240F24450C2F2000090F866
:102E3000761001F0F001114480F876100A9ABDF87E
:102E40002C101144CA7990F8761002F0F00201F0CB
:102E50000F01114480F8761090F8760000F00F0012
:102E6000012813DBFFE740F24450C2F2000090F863
:102E7000760000F00F00042808DCFFE740F6694107
:102E8000C2F20001087801300870FFE768E20A9991
:102E9000BDF82C000844C07940F24451C2F2000150
:102EA00081F878000A9ABDF82C001044007A81F865
:102EB00079000A9ABDF82C001044407A81F87A0013
:102EC0000A9ABDF82C001044D0F80A00C86747E2FF
:102ED0000A99BDF82C000144C879097A40EA01201A
:102EE00040F24451C2F20001A1F880000A9ABDF8F4
:102EF0002C000244507A927A40EA0220A1F8820023
:102F00000A9ABDF82C000244D07A127B40EA0220D3
:102F1000A1F8840024E20A99BDF82C0000EB010C12
:102F20009CF80B00C0079CF807109CF808209CF840
:102F300009309CF80AC040EA0C6040EA034040EACD
:102F40000220084440F24451C2F20001C1F8880056
:102F500006E20A99BDF82C000844C07940F24451B9
:102F6000C2F2000181F88C000A9ABDF82C001044CE
:102F7000007A81F88D000A9ABDF82C000244507A3C
:102F8000927A40EA0220A1F88E000A9ABDF82C003D
:102F90000244D07A127B40EA0220A1F89000DFE1DF
:102FA0000A99BDF82C000144C879097A40EA012049
:102FB00040F24451C2F20001A1F892000A9ABDF811
:102FC0002C000244507A927A40EA0220A1F8940040
:102FD0000A9ABDF82C000244D07A127B40EA022003
:102FE000A1F896000020ADF82600FFE7BDF8260006
:102FF00040F24451C2F2000149880639884219DA88
:10300000FFE70A99BDF82630BDF82C0018440844A3
:10301000407B40F24452C2F200025188DB43194423
:10302000114481F89200FFE7BDF826000130ADF8A9
:103030002600DBE794E10A99BDF82C000844D0F89B
:10304000070040F24451C2F20001C1F84C020A9A52
:10305000BDF82C001044D0F80B00C1F850020A9AB9
:10306000BDF82C001044C07B81F854020A9ABDF8C8
:103070002C001044007C81F855020A9ABDF82C00FF
:103080001044407C81F856026AE10A99BDF82C0090
:103090000144C879097A40EA012040F24451C2F261
:1030A0000001A1F864020A9ABDF82C000244507A8B
:1030B000927A40EA0220A1F866020A9ABDF82C0032
:1030C0000244D07A127B40EA0220A1F868020A9AF0
:1030D000BDF82C001044407B81F86A020A9ABDF8C2
:1030E0002C001044807B81F86B020A9ABDF82C00FA
:1030F0000244D07B127C40EA0220A1F86C022FE14E
:103100000A99BDF82C000144C879097A40EA0121E6
:1031100040F24450C2F20000A0F858120A9ABDF8DA
:103120002C101144B1F8091000EE101AB8EEC00AC4
:1031300080ED970A0A9ABDF82C101144497B00EEE5
:10314000101AB8EE400A80ED980A09E10A99BDF814
:103150002C000844D0F8070040F24451C2F20001AC
:103160000391C1F884020A9ABDF82C001044D0F8EB
:103170000B00C1F888020A9ABDF82C001044D0F860
:103180000F00C1F88C020A9ABDF82C001044D0F848
:103190001300C1F890020A9ABDF82C001044D0F830
:1031A0001700C1F894020A9ABDF82C001044D0F818
:1031B0001B00C1F898020A9ABDF82C001044D0F800
:1031C0001F00C1F89C020A9ABDF82C001044D0F8E8
:1031D0002300C1F8A0020A9ABDF82C001044D0F8D0
:1031E0002700C1F8A4020A9ABDF82C001044D0F8B8
:1031F0002B00C1F8A802B3E00A99BDF82C000844DE
:10320000C07940F24451C2F2000181F8AC020A9A3E
:10321000BDF82C001044007A81F8AD020A9ABDF87E
:103220002C001044407A81F8AE020A9ABDF82C00B6
:103230001044807A81F8AF020A9ABDF82C0010443D
:10324000C07A81F8B0020A9ABDF82C001044007BC5
:1032500081F8B10284E00A99BDF82C000144C879D4
:10326000097A40EA012040F24451C2F20001029181
:10327000A1F8B2020A9ABDF82C001044427AB1F8C3
:10328000B40200F470401044A1F8B4020A9ABDF8E8
:103290002C001044827AB1F8B4026FF31F3040EA78
:1032A0000230A1F8B4020A9ABDF82C001044C27A88
:1032B000B1F8B60200F470401044A1F8B6020A9AC0
:1032C000BDF82C001044027BB1F8B6026FF31F303A
:1032D00040EA0230A1F8B6020A9ABDF82C00024476
:1032E000507B927B40EA0220A1F8B80238E037E038
:1032F0000A99BDF82C000844C17940F24450C2F24A
:103300000000019080F8BA120A9ABDF82C100A4405
:10331000117A527A41EA0221A0F8BC120A9ABDF849
:103320002C100A44917AD27A41EA0221A0F8BE1206
:103330000A9ABDF82C1011440C3100F5307031227E
:103340000092FDF7D0F8009A01980A9BBDF82C1066
:1033500019443D3100F2F120FDF7C5F800E0FFE728
:1033600040F24450C2F200004088BDF82C100844DE
:103370000930ADF82C0005E0BDF82C000130ADF8A7
:103380002C00FFE705E0BDF82C000130ADF82C0063
:10339000FFE7FFE7BDF82C0040F66A41C2F20001EA
:1033A00009888842FFF6CBA9FFE70020ADF82E0080
:1033B000FFE7BDF82E000CB080BD000080B541F2E3
:1033C0007440C2F2000001F013FB80BD80B541F2F1
:1033D000F450C2F2000001F00BFB80BD80B541F259
:1033E0005460C2F2000001F003FB80BD80B541F2E1
:1033F000D440C2F2000001F0FBFA80BD80B541F27A
:10340000B460C2F2000001F0F3FA80BD80B541F271
:103410003450C2F2000001F0EBFA80BD80B541F2F9
:103420009450C2F2000001F0E3FA80BD82B0019036
:103430000198007810384AF6AB21CAF6AA21A0FB01
:10344000011000090090009940F60850C0F60100F4
:10345000405C0199C8650098042807D3FFE70199EB
:103460000868042262F30900886506E0019908688B
:1034700040F2FF3290438865FFE70198806D02B00B
:103480007047000086B0059000208DF81300059865
:10349000806A03900598806910BBFFE7039802904B
:1034A00003281BD80299DFE801F0020D02180598E5
:1034B00090F82F00C00720B1FFE701208DF813001E
:1034C000FFE70CE00598C06AB0F1C07F04D1FFE7C8
:1034D00001208DF81300FFE701E000E0FFE745E081
:1034E00005988069B0F5005F25D1FFE7039801904A
:1034F00003281ED80199DFE801F00206021101201D
:103500008DF8130016E0059890F82F00C00720B141
:10351000FFE701208DF81300FFE70BE00598C06A74
:10352000B0F1C07F04D1FFE701208DF81300FFE761
:1035300000E0FFE719E003980090032804D3FFE7B9
:103540000098032804D00EE001208DF813000BE052
:10355000059890F82F00C00720B1FFE701208DF8F3
:103560001300FFE700E0FFE7FFE7FFE79DF8130028
:1035700006B0704784B003900291019200930398C3
:103580000168086820F480200860009803990968A1
:10359000486003988068402809D1FFE701980399A3
:1035A00009688860029803990968C86008E0029871
:1035B000039909688860019803990968C860FFE762
:1035C00004B070477047000072B6FFE7FEE70000E6
:1035D00084B0029001914FF6FF70ADF800000298A0
:1035E00028B9FFE74FF6FF70ADF80E0021E0FFE7C6
:1035F0000198411E0191B8B1FFE70298411C029168
:1036000000788DF80300BDF800109DF803004840D5
:10361000C2B240F61050C0F6010030F8120080EA45
:103620001120ADF80000E3E7BDF80000ADF80E0092
:10363000FFE7BDF80E0004B07047000083B00290B1
:103640000191FF208DF80300FFE70198411E0191D1
:1036500098B1FFE79DF8030002994A1C029209788D
:1036600048408DF802009DF8021040F61070C0F638
:103670000100405C8DF80300E7E79DF8030003B00C
:103680007047000084B002900191029890F82000E9
:103690008DF803009DF80300012805D0FFE79DF891
:1036A000030002280AD1FFE7019A029801684869DD
:1036B0001043486100208DF80F0008E00299486A25
:1036C00040F48020486201208DF80F00FFE79DF84C
:1036D0000F0004B07047000088B006900591049276
:1036E0000393069890F820008DF80700069800686C
:1036F000806800900598806808B9FFE700E0FFE760
:103700009DF80700012806D0FFE79DF80700022872
:1037100040F08080FFE79DF80300400700280CD4AC
:10372000FFE79DF803000007002806D4FFE79DF897
:103730000300C006002864D5FFE70098C0F30160CD
:1037400002900299012088400399086005988068DA
:1037500068B9FFE705980168C06840EA41500699DA
:103760000968029A01EB0211C1F880010EE0059987
:103770004A688868C96840EAC2000843069909682F
:10378000029A01EB0211C1F88001FFE70598006978
:1037900006990968029A01EB0211C1F884010598A3
:1037A000007D01280CD1FFE706980068029900EB24
:1037B0000111D1F8840140F48070C1F88401FFE761
:1037C0000498406806990968029A01EB0211C1F851
:1037D0008C010498006806990968029A01EB0211AD
:1037E000C1F8880106980068029900EB0111D1F830
:1037F000800140F00100C1F8800100208DF81F0019
:1038000011E00699486A40F40010486201208DF8E2
:103810001F0008E00699486A40F4802048620120B1
:103820008DF81F00FFE79DF81F0008B070470000EB
:1038300086B004900391049800680190049890F871
:1038400020008DF803009DF80300012806D0FFE753
:103850009DF80300022840F0B080FFE746F20040E8
:10386000C4F2000001900199D1F8000240F001007B
:10387000C1F800020199D1F8000220F47C50C1F88F
:1038800000020398426A0199D1F8000240EA02203E
:10389000C1F800020398406900F01F010120884030
:1038A0000290029A0199D1F81C029043C1F81C02BF
:1038B0000398C069F0B9FFE7029A0199D1F80C02A8
:1038C0009043C1F80C02039A9088D168526940EA8B
:1038D0000140019901EBC201C1F84002039A10882E
:1038E0009168526940EA0140019901EBC201C1F8B7
:1038F0004402FFE70398C06901281ED1FFE7029A3E
:103900000199D1F80C021043C1F80C02039A908877
:103910001168526940EA0140019901EBC201C1F806
:103920004002039A90899168526940EA01400199E6
:1039300001EBC201C1F84402FFE70398806940B976
:10394000FFE7029A0199D1F804029043C1F80402FA
:1039500007E0029A0199D1F804021043C1F8040269
:10396000FFE70398006940B9FFE7029A0199D1F88F
:1039700014029043C1F8140207E0029A0199D1F8A9
:1039800014021043C1F81402FFE70398006A0128EB
:1039900008D1FFE7029A0199D1F81C021043C1F83F
:1039A0001C02FFE70199D1F8000220F00100C1F8E4
:1039B000000200208DF8170008E00499486A40F4DE
:1039C0008020486201208DF81700FFE79DF817005E
:1039D00006B0704781B0009001B0704786B0049087
:1039E000039102920193049890F820008DF803004F
:1039F0009DF80300012806D0FFE79DF80300022888
:103A000040F0E880FFE7039880B9FFE7049800687A
:103A1000C068800748B9FFE70499486A40F400107D
:103A2000486201208DF81700DDE00FE0049800687F
:103A30000069800748B9FFE70499486A40F400101C
:103A4000486201208DF81700CDE0FFE70498006878
:103A5000039900EB0110D0F8B00100F004000299C6
:103A600088600298806858B9FFE704980068039955
:103A700000EB0110D0F8B001400D029908600AE097
:103A800004980068039900EB0110D0F8B001C00859
:103A900002994860FFE704980068039900EB011061
:103AA000D0F8B00100F002000299C86004980068E4
:103AB000039900EB0110D0F8B40100F00F000828C2
:103AC00004D3FFE70299082008610BE0049800681E
:103AD000039900EB0110D0F8B40100F00F00029937
:103AE0000861FFE704980068039900EB0110D0F823
:103AF000B40180B2000A02998861049800680399B1
:103B000000EB0110D0F8B401000C02994861049850
:103B10000068039900EB0110D0F8B8010199087012
:103B200004980068039900EB0110D0F8B801000A6E
:103B30000199487004980068039900EB0110D0F8CF
:103B4000B801000C0199887004980068039900EB93
:103B50000110D0F8B801000E0199C87004980068EF
:103B6000039900EB0110D0F8BC0101990871049889
:103B70000068039900EB0110D0F8BC01000A01991C
:103B8000487104980068039900EB0110D0F8BC015B
:103B9000000C0199887104980068039900EB0110EA
:103BA000D0F8BC01000E0199C871039838B9FFE73D
:103BB00004980168C86840F02000C86006E00498D6
:103BC0000168086940F020000861FFE700208DF8D7
:103BD000170008E00499486A40F4802048620120F8
:103BE0008DF81700FFE79DF8170006B0704700003A
:103BF00083B0029000200190029890F820008DF888
:103C000003009DF80300012805D0FFE79DF803009D
:103C1000022822D1FFE7029800688068400100284E
:103C200004D5FFE7019801300190FFE70298006892
:103C300080680001002804D5FFE701980130019059
:103C4000FFE7029800688068C000002804D5FFE7FD
:103C5000019801300190FFE7FFE7019803B070473A
:103C600080B58AB0099000200890099800684069E2
:103C70000790099800684068069009980068806875
:103C8000059009980068C068049009980068006968
:103C9000039009980068806902909DF81C00C00795
:103CA000002800F09480FFE79DF81400C00758B387
:103CB000FFE709980168012088609DF814008007DB
:103CC000002804D5FFE7099800F0E2FD1BE09DF80D
:103CD00014004007002805D5FFE7089840F400606D
:103CE00008900FE09DF814000007002805D5FFE7B5
:103CF000089840F48050089003E0099800F0C4FD53
:103D0000FFE7FFE7FFE7FFE79DF81500C00760B397
:103D1000FFE7099801684FF4807088609DF81500EE
:103D20008007002804D5FFE7099800F0B9FD1BE0E3
:103D30009DF815004007002805D5FFE7089840F4D6
:103D4000005008900FE09DF815000007002805D5E9
:103D5000FFE7089840F48040089003E0099800F0DD
:103D60009BFDFFE7FFE7FFE7FFE79DF81600C007B1
:103D700060B3FFE7099801684FF4803088609DF8D0
:103D800016008007002804D5FFE7099800F090FD91
:103D90001BE09DF816004007002805D5FFE70898AE
:103DA00040F4004008900FE09DF81600000700283E
:103DB00005D5FFE7089840F48030089003E00998A3
:103DC00000F072FDFFE7FFE7FFE7FFE7FFE79DF881
:103DD0001C000007002810D5FFE79DF81000C00662
:103DE000002809D5FFE7089840F40070089009986A
:103DF00001681020C860FFE7FFE79DF81C0040073E
:103E000000280FD5FFE79DF810000007002808D50F
:103E1000FFE7099801680820C860099800F0D0FA07
:103E2000FFE7FFE79DF81C00800700280BD5FFE7A0
:103E300009980068C068800720B1FFE7099800F082
:103E4000C3FAFFE7FFE79DF81C004006002810D5E5
:103E5000FFE79DF80C00C006002809D5FFE7089889
:103E600040F4806008900998016810200861FFE71D
:103E7000FFE79DF81C00800600280FD5FFE79DF89E
:103E80000C000007002808D5FFE709980168082002
:103E90000861099800F076FBFFE7FFE79DF81C003A
:103EA000C00600280BD5FFE7099800680069800765
:103EB00020B1FFE7099800F069FBFFE7FFE79DF8F5
:103EC0001E00800700280FD5FFE79DF81800C006E8
:103ED000002808D5FFE70998016810204860099874
:103EE00000F088FCFFE7FFE79DF81E00C00778B1EF
:103EF000FFE79DF818000007002808D5FFE709989C
:103F0000016808204860099800F0D6FCFFE7FFE749
:103F10009DF81D000006002840F18D80FFE79DF808
:103F200018004007002840F18180FFE79DF81D0040
:103F3000C00750B1FFE79DF80800C00728B1FFE7B0
:103F4000089840F001000890FFE79DF81D008007E9
:103F500000280BD5FFE79DF808008007002805D54D
:103F6000FFE7089840F002000890FFE79DF81D0069
:103F7000400700280BD5FFE79DF808004007002800
:103F800005D5FFE7089840F004000890FFE79DF88A
:103F90001D000007002848D5FFE79DF8080010F035
:103FA000700F42D0FFE7029800F0700001460191C7
:103FB000102814D0FFE70198202815D0FFE70198BA
:103FC000302816D0FFE70198402817D0FFE7019866
:103FD000502818D0FFE70198602819D01DE00898F4
:103FE00040F00800089019E0089840F01000089090
:103FF00014E0089840F0200008900FE0089840F086
:10400000400008900AE0089840F08000089005E021
:10401000089840F48070089000E0FFE70998016874
:10402000886920F070008861FFE7FFE70998016860
:1040300004204860FFE7089848B1FFE7089A09990B
:10404000486A104348620998FFF7C4FCFFE70AB0CA
:1040500080BD000080B584B00290029820B9FFE7CF
:1040600001208DF80F00E0E0029890F8200020B9C0
:10407000FFE7029800F0DEF8FFE7029801680868A1
:1040800040F00100086001F073F90190FFE7029829
:1040900000684068C007A8B9FFE701F069F9019915
:1040A000401A0B280DD3FFE70299486A40F400300C
:1040B00048620299052081F8200001208DF80F0048
:1040C000B3E0E4E702980168086820F002000860A5
:1040D00001F04EF90190FFE7029800684068800700
:1040E000002815D5FFE701F043F90199401A0B2884
:1040F0000DD3FFE70299486A40F400304862029904
:10410000052081F8200001208DF80F008DE0E3E705
:104110000298007E012807D1FFE70298016808682D
:1041200040F08000086006E002980168086820F00E
:1041300080000860FFE70298407E012807D1FFE772
:1041400002980168086840F04000086006E00298A4
:104150000168086820F040000860FFE70298807E50
:10416000012807D1FFE702980168086840F02000A5
:10417000086006E002980168086820F020000860E6
:10418000FFE70298C07E012807D1FFE70298016887
:10419000086820F01000086006E0029801680868CE
:1041A00040F010000860FFE70298007F012807D167
:1041B000FFE702980168086840F00800086006E020
:1041C00002980168086820F008000860FFE702987C
:1041D000407F012807D1FFE702980168086840F096
:1041E0000400086006E002980168086820F00400F6
:1041F0000860FFE7029B19685A689868D3F80CC0FA
:1042000040EA0C00D3F810C040EA0C005B69184388
:10421000013A1043C861029900204862029A0121C4
:1042200082F820108DF80F00FFE79DF80F0004B012
:1042300080BD000080B592B01190002010900F90CA
:104240000E900D900C901198006846F20041C4F257
:10425000000188424BD1FFE740F6D050C2F2000087
:104260000168013101600068012812D1FFE7FFE712
:1042700000200B9043F64000C4F20200016841F0B8
:1042800000710160006800F000700B900B98FFE770
:10429000FFE7FFE700200A9043F63000C4F2020077
:1042A000016841F001010160006800F001000A901E
:1042B0000A98FFE74FF4C0500C90022004900D9034
:1042C000002005900E9003200F90092010900020F0
:1042D000C4F202000CA900F057FE0499059A1420BC
:1042E000069001F0DDF8069801F0D0F866E011982C
:1042F000006846F60001C4F2000188425DD1FFE784
:10430000FFE70020099043F64000C4F20200016874
:1043100041F080610160006800F0806009900998B8
:10432000FFE740F6D050C2F20000016801310160A1
:104330000068012812D1FFE7FFE70020089043F64C
:104340004000C4F20200016841F0007101600068A1
:1043500000F0007008900898FFE7FFE7FFE70020F3
:10436000079043F63000C4F20200016841F00201F8
:104370000160006800F0020007900798FFE74FF423
:1043800040500C90022001900D90002002900E9061
:1043900003200F900920109040F20040C4F2020068
:1043A0000CA900F0F1FD0199029A4120039001F05F
:1043B00077F8039801F06AF8FFE7FFE712B080BDD5
:1043C00081B0009001B0704780B582B0019040F29A
:1043D0008020C2F2000041F22441C2F200010AF042
:1043E00021F8002840F0CC80FFE741F26400C2F2DF
:1043F000000009F059FF30BBFFE740F6A461C2F2AC
:10440000000108680130086040F67850C2F20000F0
:1044100090ED020A41F26400C2F20000B0F90A0015
:1044200001EE100AF8EEC10A41F28400C2F2000067
:104430000AF06CF840F67051C2F20001087840F0C2
:1044400001000870FFE740F64470C2F2000009F076
:104450002BFF30BBFFE740F6A861C2F200010868FD
:104460000130086040F67850C2F2000090ED030A77
:1044700040F64470C2F20000B0F90A0001EE100AE2
:10448000F8EEC10A40F66470C2F200000AF03EF88D
:1044900040F67051C2F20001087840F00200087046
:1044A000FFE740F6B460C2F2000009F0FDFE30BB49
:1044B000FFE740F6AC61C2F2000108680130086015
:1044C00040F67850C2F2000090ED010A40F6B46068
:1044D000C2F20000B0F90A0001EE100AF8EEC10ABB
:1044E00040F6D460C2F200000AF010F840F67051B5
:1044F000C2F20001087840F004000870FFE740F6BF
:10450000D470C2F2000009F0CFFE30BBFFE740F6E6
:10451000B061C2F2000108680130086040F67850CE
:10452000C2F2000090ED000A40F6D470C2F2000022
:10453000B0F90A0001EE100AF8EEC10A40F6F47074
:10454000C2F2000009F0E2FF40F67051C2F2000131
:10455000087840F008000870FFE740F63060C2F2CB
:10456000000009F0B1FD08B9FFE7FFE741F2F410E0
:10457000C2F2000009F0A8FD08B9FFE7FFE7FFE776
:1045800002B080BD81B0009001B0704780B584B0AA
:10459000039040F22C20C2F2000041F24C41C2F2E2
:1045A000000109F03FFF002840F01A81FFE706F004
:1045B0001DF841F2A420C2F2000009F085FD002898
:1045C00055D1FFE741F2A420C2F2000090ED060AA7
:1045D0009FED841A30EE010A41F2EC30C2F2000085
:1045E000019080ED000A90ED000A0BF0E7FC0198C5
:1045F00041F2E831C2F2000181ED000A90ED000ABB
:104600000BF034FC41F2E030C2F2000080ED000A11
:1046100090ED000AB5EE400AF1EE10FA13DDFFE767
:1046200041F2E830C2F2000090ED000A9FED701AEE
:1046300060EE010A41F2FC00C2F200009FED6B0A3D
:1046400009F064FF12E041F2E830C2F2000090EDA0
:10465000000A9FED651A60EE010A41F2FC00C2F209
:1046600000009FED620A09F051FFFFE7FFE741F20A
:104670007030C2F20000007802380146009105282F
:1046800000F29F800099DFE801F0031E519C99031E
:1046900041F28830C2F2000090ED000A41F28C3005
:1046A000C2F20000D0ED000A41F29030C2F20000E8
:1046B00090ED001A40F67850C2F200004FF4FA5123
:1046C00009F054F88BE041F28830C2F2000090ED1E
:1046D000002A41F2E030C2F2000090ED003A41F2CF
:1046E0008C30C2F2000090ED001A41F2E830C2F2C4
:1046F000000090ED004A21EE045A22EE030A30EE4B
:10470000450A22EE042A21EE031A71EE020A41F252
:10471000FC00C2F2000090ED101A40F67850C2F290
:1047200000004FF4FA5109F021F858E041F214303A
:10473000C2F20000B0F91E00B7EE001ABFEE000A88
:1047400010F5167FD8BFB0EE410A8DED020A41F296
:104750008830C2F2000090ED002A41F2E030C2F24F
:10476000000090ED003A41F28C30C2F2000090ED72
:10477000001A41F2E830C2F2000090ED004A21EE4A
:10478000045A22EE030A30EE450A22EE042A21EEF4
:10479000031A71EE020A9DED021A41F29C20C2F248
:1047A000000090ED002A21EE021A40F67850C2F285
:1047B00000004FF4FA5108F0D9FF10E004F0F0FFC8
:1047C0000DE040F67850C2F200009FED081A00217B
:1047D000B0EE410AF0EE410A08F0C8FFFFE7FFE73C
:1047E00004B080BDDDCDBB3F00008CC200000000E6
:1047F00000008C4281B0009001B0704780B584B059
:104800000290029890F8200001282FD1FFE702992A
:10481000022081F8200002980168086820F0010059
:10482000086000F0A5FD0190FFE70298006840686D
:10483000C007A8B1FFE700F09BFD0199401A0B28C3
:104840000DD3FFE70299486A40F4003048620299AC
:10485000052081F8200001208DF80F000FE0E4E72B
:104860000299002048628DF80F0008E00299486A1A
:1048700040F40020486201208DF80F00FFE79DF80A
:104880000F0004B080BD000081B0009001B07047FF
:1048900081B0009001B0704781B0009001B07047C6
:1048A00081B0009001B0704781B0009001B07047B6
:1048B00081B0009001B0704781B0009001B07047A6
:1048C00080B584B002900298806D019000F050FD98
:1048D0000090029890F8350002280DD0FFE7029969
:1048E00080204865FFE70299002081F83400FFE747
:1048F00001208DF80F0055E002980168086820F04B
:104900001600086002980168486920F0800048613C
:104910000298006C20B9FFE70298806C38B1FFE77D
:1049200002980168086820F008000860FFE7029814
:104930000168086820F001000860FFE7029800683D
:104940000068C007C8B1FFE700F012FD0099401AE7
:10495000062811D3FFE70299202048650299032019
:1049600081F83500FFE70299002081F83400FFE765
:1049700003208DF80F0015E0E0E70298C16D3F209D
:104980008840019988600299012081F83500FFE78D
:104990000299002081F83400FFE7FFE700208DF83E
:1049A0000F00FFE79DF80F0004B080BD82B00090BB
:1049B000009890F83500022807D0FFE70099802082
:1049C000486501208DF807000EE00099052081F868
:1049D000350000980168086820F001000860FFE7D2
:1049E00000208DF80700FFE79DF8070002B0704730
:1049F00080B586B005900020039040F22000C2F2FE
:104A00000000006848F2B511C1F64E31A0FB01105C
:104A1000800A02900598806D0190019800680490CA
:104A200004980599C96DC840000700281AD5FFE70A
:104A30000598006800684007002812D5FFE7059830
:104A40000168086820F0040008600598C16D08201E
:104A50008840019988600599486D40F001004865DB
:104A6000FFE7FFE704980599C96DC840C007A0B1EA
:104A7000FFE7059800684069000600280CD5FFE7AD
:104A80000598C16D01208840019988600599486D9D
:104A900040F002004865FFE7FFE704980599C96DFB
:104AA000C8404007002814D5FFE705980068006853
:104AB000800700280CD5FFE70598C16D04208840C9
:104AC000019988600599486D40F004004865FFE74A
:104AD000FFE704980599C96DC840C006002847D56E
:104AE000FFE7059800680068000700283FD5FFE74A
:104AF0000598C16D1020884001998860059800686C
:104B00000068400300281AD5FFE705980068006890
:104B10000003002809D4FFE70598006C20B1FFE7E7
:104B20000598016C8847FFE708E00598806C20B184
:104B3000FFE70598816C8847FFE7FFE716E00598D7
:104B400000680068C005002807D4FFE705980168E1
:104B5000086820F008000860FFE70598006C20B1A5
:104B6000FFE70598016C8847FFE7FFE7FFE7FFE7EE
:104B700004980599C96DC8408006002840F18D80D1
:104B8000FFE7059800680068C006002840F18480AF
:104B9000FFE70598C16D202088400199886005983D
:104BA00090F83500052834D1FFE7059801680868BA
:104BB00020F01600086005980168486920F0800020
:104BC00048610598006C20B9FFE70598806C38B102
:104BD000FFE705980168086820F008000860FFE713
:104BE0000598C16D3F208840019988600599012092
:104BF00081F83500FFE70599002081F83400FFE7D0
:104C00000598006D20B1FFE70598016D8847FFE723
:104C10007BE0059800680068400300281AD5FFE78C
:104C20000598006800680003002809D4FFE705988C
:104C3000406C20B1FFE70598416C8847FFE708E02A
:104C40000598C06B20B1FFE70598C16B8847FFE767
:104C5000FFE720E0059800680068C005002811D42F
:104C6000FFE705980168086820F0100008600599C2
:104C7000012081F83500FFE70599002081F8340014
:104C8000FFE7FFE70598C06B20B1FFE70598C16B10
:104C90008847FFE7FFE7FFE7FFE70598406DA0B310
:104CA000FFE70598406DC00730B3FFE70599052081
:104CB00081F8350005980168086820F00100086057
:104CC000FFE70398013003900299884201D9FFE77A
:104CD00007E0FFE7059800680068C0070028F0D1EA
:104CE000FFE70599012081F83500FFE705990020CD
:104CF00081F83400FFE7FFE70598C06C20B1FFE7BB
:104D00000598C16C8847FFE7FFE706B080BD00004B
:104D100080B586B004900020039000F029FB02903B
:104D2000049820B9FFE701208DF81700A3E004984C
:104D3000406A08B1FFE7FFE70499022081F83500D7
:104D4000FFE70499002081F83400FFE70498016828
:104D5000086820F001000860FFE704980068006818
:104D6000C00790B1FFE700F003FB0299401A062844
:104D70000AD3FFE70499202048650499032081F8AD
:104D800035008DF8170076E0E7E7049800680068C2
:104D90000390039848F23F01CFF2100108400390BE
:104DA000049900914868D1F808C0CB680A6940EAC4
:104DB0000C00184310434A6910438A691043CA69BA
:104DC0001043096A01430398084303900498406A1A
:104DD000042808D1FFE70499C86A096B01430398C6
:104DE00008430390FFE70398049909680860049852
:104DF000006840690390039820F00700039004982E
:104E0000416A0398084303900498406A04281AD121
:104E1000FFE70498816A0398084303900498C06AE6
:104E200080B1FFE70498FEF72DFB50B1FFE704992E
:104E3000402048650499012081F835008DF817005D
:104E400019E0FFE7FFE703980499096848610498AF
:104E5000FEF7ECFA01900498C16D3F20884001995B
:104E60008860049900204865049A012182F8351071
:104E70008DF81700FFE79DF8170006B080BD000011
:104E800080B588B0069005910492039300208DF8B8
:104E90000B000698806D0190FFE7069890F83400AB
:104EA000012804D1FFE702208DF81F0045E0069994
:104EB000012081F83400FFE7FFE7069890F83500FD
:104EC00001282BD1FFE70699022081F835000699C9
:104ED0000020486506980599049A039BFEF74AFB53
:104EE0000698C16D3F208840019988600698016846
:104EF000086840F0160008600698006C38B1FFE7BB
:104F000006980168086840F008000860FFE7069806
:104F10000168086840F00100086009E0FFE70699B1
:104F2000002081F83400FFE702208DF80B00FFE736
:104F30009DF80B008DF81F00FFE79DF81F0008B0DB
:104F400080BD000080B584B0039000F011FA02909B
:104F5000039801900198013048B1FFE740F2C0107A
:104F6000C2F200000178019808440190FFE7FFE7D2
:104F700000F0FEF90299401A0199884201D2FFE738
:104F8000F6E704B080BD00008EB00D900C910020BB
:104F90000A90099008900B90FFE70B980F2800F2F9
:104FA000CC81FFE70B99012088400A900C9800689B
:104FB0000A990840099009980A99884240F0B881F6
:104FC000FFE70C98406800F00300012807D0FFE7D6
:104FD0000C98406800F0030002282FD1FFE70D98DD
:104FE000806808900B984100032000FA01F10898AE
:104FF000884308900C98C0680B99490000FA01F1A9
:1050000008980843089008980D9988600D984068A2
:1050100008900B99012000FA01F108988843089044
:105020000C984068C0F300100B9900FA01F1089841
:105030000843089008980D994860FFE70C9840686D
:1050400000F00300032818D0FFE70D98C06808900F
:105050000B984100032000FA01F10898884308905A
:105060000C9880680B99490000FA01F108980843F0
:10507000089008980D99C860FFE70C98406800F008
:105080000300022826D1FFE70D980B996FF0030269
:1050900002EA51010844006A08900B9800F00700EA
:1050A00081000F2000FA01F10898884308900C98BD
:1050B00000690B9901F00701890000FA01F10898D5
:1050C0000843089008980D990B9B02EA530211447B
:1050D0000862FFE70D98006808900B9841000320D4
:1050E00000FA01F10898884308900C98406800F095
:1050F00003000B99490000FA01F108980843089051
:1051000008980D9908600C9880798007002800F0B5
:105110000E81FFE7FFE70020079043F64400C4F24A
:105120000200016841F480410160006800F48040A1
:1051300007900798FFE70B9820F0030043F608015B
:10514000C4F20101405808900B9800F00300810060
:105150000F2000FA01F10898884308900D9800216B
:10516000C4F20201884203D1FFE7002006905EE00E
:105170000D9840F20041C4F20201884203D1FFE7DA
:105180000120059050E00D9840F60001C4F20201A4
:10519000884203D1FFE70220049042E00D9840F6D8
:1051A0000041C4F20201884203D1FFE703200390CB
:1051B00034E00D9841F20001C4F20201884203D1AB
:1051C000FFE70420029026E00D9841F20041C4F26E
:1051D0000201884203D1FFE70520019018E00D98F5
:1051E00041F60001C4F20201884203D1FFE7062024
:1051F00000900AE00D9941F60042C4F20202082034
:10520000914208BF07200090FFE700980190FFE758
:1052100001980290FFE702980390FFE7039804903B
:10522000FFE704980590FFE705980690FFE70698CA
:10523000C0B20B9901F00301890000FA01F108984E
:105240000843089008980B9921F0030143F60802DF
:10525000C4F20102885043F60840C4F2010000681D
:10526000089009990898884308900C988079C0069E
:10527000002805D5FFE70999089808430890FFE73B
:10528000089843F60841C4F20101086043F60C4057
:10529000C4F20100006808900999089888430890B2
:1052A0000C9880798006002805D5FFE709990898B1
:1052B00008430890FFE7089843F60C41C4F2010147
:1052C000086043F60440C4F20100006808900999A0
:1052D0000898884308900C9880798007002805D5A5
:1052E000FFE70999089808430890FFE7089843F6F4
:1052F0000441C4F20101086043F60040C4F2010019
:105300000068089009990898884308900C9880795B
:10531000C00728B1FFE70999089808430890FFE7FC
:10532000089843F60041C4F201010860FFE7FFE777
:10533000FFE70B9801300B902FE60EB0704700008E
:1053400082B00190ADF802108DF801209DF80100A7
:1053500028B1FFE7BDF802000199886105E0BDF8BA
:105360000200000401998861FFE702B07047000065
:1053700041F66860C2F200000068704740F2C01059
:10538000C2F20000027841F66861C2F200010868CA
:10539000104408607047000080B543F60041C4F235
:1053A0000201086840F400700860086840F48060FA
:1053B0000860086840F480700860032000F08AF8F4
:1053C0000F2000F005F800F03BF8002080BD000041
:1053D00080B582B0009040F22000C2F20000006868
:1053E00040F2C011C2F200010A784FF47A71B1FBA9
:1053F000F2F1B0FBF1F000F06DFE20B1FFE701200B
:105400008DF8070018E000980F280DD8FFE70099E5
:105410004FF0FF30002200F043F8009840F2C41132
:10542000C2F20001086003E001208DF8070003E0EC
:1054300000208DF80700FFE79DF8070002B080BD4F
:1054400082B0FFE70020019043F64400C4F202005E
:10545000016841F480410160006800F480400190DF
:105460000198FFE7FFE70020009043F64000C4F2F8
:105470000200016841F080510160006800F0805036
:1054800000900098FFE702B07047000080B582B03E
:105490008DF807009DF9070009F034FC02B080BDCB
:1054A00080B586B08DF81700049103920020029019
:1054B00009F040FC02909DF91700019002980499B0
:1054C000039A03F0F9FA0146019809F03BFC06B093
:1054D00080BD000080B582B00190019809F054FCB5
:1054E00002B080BD80B584B002900191029820B9CD
:1054F000FFE701208DF80F0021E1019843F60041FC
:10550000C4F20201096801F00701884212D9FFE7DD
:10551000019943F60040C4F202000170006800F0F7
:1055200007000199884204D0FFE701208DF80F00A1
:1055300005E1FFE702980078800700282AD5FFE7F9
:10554000029800784007002809D5FFE743F60801D4
:10555000C4F20201086840F4E0500860FFE70298D6
:1055600000780007002809D5FFE743F60801C4F2D8
:105570000201086840F460400860FFE743F6080154
:10558000C4F20201086820F0F000029A9268104309
:105590000860FFE702980078C00700286ED0FFE798
:1055A00002984068012811D1FFE743F60000C4F2D9
:1055B0000200006800F400310020B0EB514F04D12C
:1055C000FFE701208DF80F00B9E02CE00298406859
:1055D000022805D0FFE702984068032811D1FFE7B1
:1055E00043F60000C4F20200006800F000710020E1
:1055F000B0EB516F04D1FFE701208DF80F009EE062
:1056000010E043F60000C4F20200006800F002015E
:105610000020B0EB510F04D1FFE701208DF80F00FF
:105620008DE0FFE7FFE743F60801C4F202010868D6
:1056300020F00300029A526810430860FFF798FEBA
:105640000090FFE743F60800C4F20200006800F093
:105650000C0002994968B0EB810F0ED0FFE7FFF70D
:1056600087FE0099401A41F28931884204D3FFE74E
:1056700003208DF80F0062E0E4E7FFE7019843F6AE
:105680000041C4F20201096801F00701884212D208
:10569000FFE7019943F60040C4F202000170006880
:1056A00000F007000199884204D0FFE701208DF83F
:1056B0000F0044E0FFE702980078400700280CD56F
:1056C000FFE743F60801C4F20201086820F4E05045
:1056D000029AD26810430860FFE70298007800073A
:1056E00000280DD5FFE743F60801C4F2020108685F
:1056F00020F46040029A126940EAC2000860FFE7A5
:1057000000F04CF843F60801C4F202010968C9B27E
:105710000A0940F6F041C0F60101895CC84040F238
:105720002001C2F20001086040F2C410C2F2000081
:105730000068FFF74DFE00208DF80F00FFE79DF891
:105740000F0004B080BD000040F22000C2F2000053
:105750000068704780B5FFF7F7FF43F60801C4F211
:1057600002010968C1F3822240F60051C0F601012E
:10577000895CC84080BD000080B5FFF7E5FF43F6B7
:105780000801C4F20201096889B24A0B40F60051CF
:10579000C0F60101895CC84080BD000080B586B0BC
:1057A0000020059004900390029043F60800C4F294
:1057B0000200006800F00C000146019140B1FFE7D3
:1057C000019804280AD0FFE7019808280CD04FE080
:1057D00042F20040C0F2F40002904FE041F200209B
:1057E000C0F27A00029049E043F60400C4F20200DD
:1057F000016801F03F01059100684002002813D5BF
:10580000FFE743F60400C4F202000068C0F388100A
:1058100041F20021C0F27A01A0FB0101059A0023A8
:10582000FAF7B4FD049012E043F60400C4F202005B
:105830000068C0F3881042F20041C0F2F401A0FBFE
:105840000101059A0023FAF7A1FD0490FFE743F652
:105850000400C4F20200006800F44031022000EBB2
:10586000D130039004980399B0FBF1F0029005E069
:1058700042F20040C0F2F4000290FFE7029806B046
:1058800080BD000080B586B00490049820B9FFE781
:1058900001208DF8170050E304980078C007002815
:1058A00000F0A580FFE743F60800C4F2020000689C
:1058B00000F00C00042813D0FFE743F60800C4F200
:1058C0000200006800F00C0008281ED1FFE743F634
:1058D0000400C4F2020000684002002815D5FFE76A
:1058E00043F60000C4F20200006800F4003100201A
:1058F000B0EB514F08D0FFE70498406820B9FFE7AC
:1059000001208DF8170018E370E0FFE70498406865
:10591000B0F5803F09D1FFE743F60001C4F2020170
:10592000086840F48030086020E004984068B0F5D2
:10593000A02F0DD1FFE743F60001C4F20201086871
:1059400040F480200860086840F4803008600CE073
:1059500043F60001C4F20201086820F480300860B8
:10596000086820F480200860FFE7FFE7FFE704985D
:105970004068E8B1FFE7FFF7FBFC0390FFE743F661
:105980000000C4F20200006800F400310020B0EB17
:10599000514F0CD1FFE7FFF7EBFC0399401A652844
:1059A00004D3FFE703208DF81700C6E2E7E71CE009
:1059B000FFF7DEFC0390FFE743F60000C4F20200AD
:1059C000006800F400310020B0EB514F0CD0FFE72D
:1059D000FFF7CEFC0399401A652804D3FFE70320A4
:1059E0008DF81700A9E2E7E7FFE7FFE7FFE7049874
:1059F00000788007002840F19680FFE743F6080012
:105A0000C4F20200006810F00C0F13D0FFE743F659
:105A10000800C4F20200006800F00C0008282CD135
:105A2000FFE743F60400C4F20200006840020028C9
:105A300023D4FFE743F60000C4F20200006800F040
:105A400002010020B0EB510F09D0FFE70498C068B5
:105A5000012804D0FFE701208DF817006DE243F61E
:105A60000001C4F20201086820F0F800049A1269EB
:105A700040EAC2000860FFE754E00498C06870B3D1
:105A8000FFE70021C4F2472101200860FFF770FC06
:105A90000390FFE743F60000C4F20200006800F044
:105AA00002010020B0EB510F0CD1FFE7FFF760FCC3
:105AB0000399401A032804D3FFE703208DF8170049
:105AC0003BE2E7E743F60001C4F20201086820F078
:105AD000F800049A126940EAC200086021E000213F
